:100000000C946A020C9487020C9487020C94870269
:100010000C9487020C9487020C9487020C9487023C
:100020000C9487020C9487020C9427110C94E31013
:100030000C942B210C9487020C9487020C94870259
:100040000C9487020C9487020C9487020C9487020C
:100050000C9487020C94420C0C9487020C94870237
:100060000C9487020C9487020C9487020C948702EC
:100070000C9487020C9487020C9487020C948702DC
:100080000C9487020C9487020C9487020C948702CC
:100090000C9487020C9487020C9487020C948702BC
:1000A0000C9487020C9487020C94870229002B0081
:1000B0002A610255000F00001E00140004001D00FC
:1000C000526108551F001A0016001B0051642B00D6
:1000D000200008000700060050682C0021001500D1
:1000E000090019004F000100220017000A00050056
:1000F000000001554C00015400000253000004555B
:100100002A000154000002530000145523001C0073
:100110000B00110000001155240018000D00100004
:100120005200030025000C000E00360051002C0088
:10013000260012000F00370050002800270013008F
:10014000334338004F0029002A0031003400125593
:1001500003580000105001000100010001000000E0
:100160003A002E0057005600010001003B00230218
:1001700025023800010001003C002F0226022F005A
:10018000010001003D0030022702300001000100A3
:100190003E0031023500350200000100010001007F
:1001A000000001000000010001000100000001004A
:1001B000000001003F001E02360224020000010080
:1001C00040001F02370233000100010041002002FD
:1001D0002D023600010001004200210233026300BB
:1001E00001000100430022021250310001001050B2
:1001F00044004500340201000100000010500100DD
:100200002A0001000100000001002E0057002D000F
:1002100052610100010023025500380051640100C1
:1002200001002F0226022F0050682C00010030022E
:10023000270230004F000100010001000100010011
:10024000000001004C00010000000100000001005E
:100250002A0001000000010000000100010001006F
:1002600001000100000001000100240021001E0027
:10027000520001000100250022001F0051002C0047
:100280000100260023002000500028000100270064
:10029000270027004F00105001000100010001005D
:1002A00001000000105001000100010001000000E9
:1002B0000100F900F200FB00010001000100F00064
:1002C000F10001000100F5000100FA00F300FC005C
:1002D0000100F4000100FF00FD00FF00010001002B
:1002E0000100010001000100000001000100010007
:1002F0000000010000000100005C0100000001009E
:1003000000000100010001000100010000000100E7
:100310000100010050000100010001000100520035
:100320005100010001000100AA0001004F0001007E
:1003300001005800A9000100010001000100105057
:100340000400010001000100010000000501090294
:10035000A10185020901A10005091901290515005E
:10036000250195057501810295017503810105013E
:10037000093009311581257F9502750881060938F4
:100380001581257F950175088106050C0A3802152F
:1003900081257F950175088106C0C005010980A1EE
:1003A0000185031601002603001A81002A830075C7
:1003B0001095018100C0050C0901A10185041601F9
:1003C00000269C021A01002A9C02751095018100EA
:1003D000C005010906A1018505050719E029E715F2
:1003E0000025019508750181020508190129059567
:1003F0000575019102950175039101050719002901
:10040000EF1500250195F075018102C0050109066F
:10041000A101050719E029E71500250195087501D7
:1004200081029501750881010508190129059505C5
:10043000750191029501750391010507190029FFC6
:10044000150026FF00950675088100C009023B00D3
:10045000020100A0FA0904000001030101000921C2
:10046000110100012240000705810308000A090468
:100470000100010300000009211101000122C00058
:100480000705820320000A1201100100000008ED98
:10049000FE071301000102030104033000000016EF
:1004A000034500720067006F0044006F0078002071
:1004B0000045005A00000016034500720067006FF7
:1004C0000044006F007800200045005A000000043E
:1004D0000309040011241FBECFEFDAE0DEBFCDBF59
:1004E00011E0A0E0B1E0EAECF7E402C005900D9263
:1004F000A03CB107D9F725E0A0ECB1E001C01D9206
:10050000AC3FB207E1F70E940D1F0C94A6230C9498
:100510000000E8EDF0E080818E7F80831092E200A1
:100520001092DA001092E100A0EEB0E08C918160B0
:100530008C9380818F77808319BCA7EDB0E08C917C
:100540008E7F8C9380818F7E80831092C905089561
:100550002091E4003091E50095E6A9012091EC009E
:10056000822F817020FF06C08091E80080FF06C0C6
:1005700080E008952091E80022FD1AC08091EE05E8
:10058000882389F0853089F08091EB0085FD0FC0CC
:100590002091E4003091E50042175307F9F29150A1
:1005A000E1F684E0089582E0089583E0089581E013
:1005B0000895EF92FF920F931F93CF937C018B01CD
:1005C0000E94A802C82F811117C08091E80085FD04
:1005D0000BC08091E8008E778093E8000E94A8020B
:1005E000882399F3C82F08C0F70181917F01809378
:1005F000F1000150110949F78C2FCF911F910F91F4
:10060000FF90EF9008958091F00587FF13C08091CF
:10061000E80082FF06C08091E8008B778093E800B5
:1006200004C08091EE058111F2CF08958091EE050E
:100630008823D9F38091E80080FFF8CF8091E8000B
:100640008E77ECCF982F9093E900242F762F50E0EF
:10065000891731F07091EC002091ED005091F0007D
:1006600021FD07C09F5F973071F78093E90081E01B
:1006700008953091EB003E7F3093EB003091ED0018
:100680003D7F3093ED003091EB0031603093EB0013
:100690007093EC002093ED005093F0002091EE0059
:1006A00027FDE0CF80E00895CF92DF92EF92FF9296
:1006B0000F931F93CF93DF93C8EDD0E088818F7E97
:1006C0008883E7EDF0E080818160808384E082BFF1
:1006D00081E08093C90588818E7F888302EE10E0D7
:1006E000F80110821092DA0081EEC82ED12CF601AA
:1006F000108288818F778883888180688883888149
:100700008F7D888319BC1092EE051092EF05109230
:10071000ED051092EC0590EEE92EF12CF7018081A9
:100720008B7F808388818160888342E060E080E005
:100730000E942203F60180818E7F8083F8018081F0
:1007400081608083808188608083F70180818E7FD3
:100750008083888180618883DF91CF911F910F9181
:10076000FF90EF90DF90CF900895FC018091F60507
:100770009091F70586179707A0F06115710529F488
:100780009091E8009E779093E80090E061157105E4
:1007900051F4911108C08091E80082FF34C080E0DC
:1007A0000895BC01F2CF8091EE058823C1F1853018
:1007B000C1F18091E80083FD30C08091E80082FDA6
:1007C000EACF8091E80080FFE1CF8091F300209193
:1007D000F200382F6115710519F02830310558F0F5
:1007E00091E02830310509F090E02091E8002E7763
:1007F0002093E800CBCF81918093F1006150710983
:100800002F5F3F4FE7CF8091EE05882341F0853081
:1008100041F08091E80083FFBECF81E0089582E03F
:10082000089583E008958091C805811107C08091E3
:10083000EE05843011F482E0089581E008958091FE
:10084000CB0508959091B105803F41F48091B205A8
:1008500087FD1092B205992371F00895813F29F424
:100860008091B2051816ACF3F6CF823F81F497FF62
:10087000F2CF1092B1058091B2059091B305892B0A
:100880009091B405892B49F71092B5050895833FDF
:1008900019F4191674F3DFCF893F39F48091B30549
:1008A0001816CCF61092B305D6CF8A3F29F4809162
:1008B000B30587FFD0CFF6CF8B3F39F48091B405D5
:1008C00087FFC9CF1092B405C6CF8C3F29F4809121
:1008D000B4051816BCF3BFCF843F31F48091B00546
:1008E0008E7F8093B005B7CF853F21F48091B0050E
:1008F0008D7FF7CF863F21F48091B0058B7FF1CFBC
:10090000873F21F48091B005877FEBCF883F21F4AA
:100910008091B0058F7EE5CF8D3F31F480918705C2
:100920008E7F8093870597CF8E3F21F48091870536
:100930008D7FF7CF8F3F09F08ECF809187058B7F1A
:10094000F0CF8091870580FD16C081FD16C082FD25
:1009500016C08091B5058823A1F0883280F428E084
:10096000829FC001112468E270E00E941F22862F3E
:10097000672B39F0089582E0089584E0089588E0B7
:10098000089581E008958091870580FD16C081FD5E
:1009900016C082FD18C08091B505882391F08C3374
:1009A00090F423E2829FC00111246CE370E00E9466
:1009B0001F22862F672B49F0089588E0089581E172
:1009C000089585E0089583E2089581E00895803FC9
:1009D00031F40E94C30481958093B2050895813F4C
:1009E00019F40E94C304F8CF823F31F40E94C3047B
:1009F00081958093B1050895833F19F40E94C30443
:100A0000F8CF893F29F40E94A1048093B30508958B
:100A10008A3F21F40E94A1048195F7CF8B3F31F4E6
:100A20000E94A10481958093B40508958C3F19F428
:100A30000E94A104F8CF843F31F48091B005816019
:100A40008093B0050895853F21F48091B0058260C0
:100A5000F7CF863F21F48091B0058460F1CF873FC6
:100A600021F48091B0058860EBCF883F21F480911C
:100A7000B0058061E5CF8D3F31F4809187058160BD
:100A80008093870508958E3F21F4809187058260C9
:100A9000F7CF8F3FB9F7809187058460F1CFCF9270
:100AA000DF92EF92FF920F931F932FB7F89440912C
:100AB00083055091840560918505709186052FBF4F
:100AC0006A017B01EE24FF248C0130E020E0C01697
:100AD000D106E206F30650F0481B590BCA011F91DC
:100AE0000F91FF90EF90DF90CF9008954150510902
:100AF000F3CF80917E05882331F010927E0510920D
:100B00007D0510927C050895809590917B05982332
:100B100090937B05089510927805109277051092B6
:100B200076050895809175058111109275050895D7
:100B3000909116019923D1F090919C0597FF16C0D2
:100B4000E82FE695E695E695EE31E0F4F0E0E05426
:100B5000FE4F282F277081E090E001C0880F2A9572
:100B6000EAF780959281892382830895E2ECF1E08F
:100B70009191891303C0DF0111971C9291E0E83C29
:100B8000F907B1F70895909116019923C1F090915A
:100B90009C0597FF14C0E82FE695E695E695EE31A3
:100BA000F8F4F0E0E054FE4F877021E030E001C03F
:100BB000220F8A95EAF78281822B82830895A2EC24
:100BC000B1E0EFEF90E02D91821751F0EF3F19F473
:100BD000211101C0E92F9F5F9630A9F7EF3F09F47B
:100BE00008950E2E000CFF0BE054FE4FE6CFE92FC8
:100BF000EE0FE90FEE0F8E0F982F97708695869562
:100C0000869525E0829FF0011124E65CFA4F50E0C2
:100C100040E080E0219130E0092E02C03695279512
:100C20000A94E2F721703327042E01C0220F0A94A0
:100C3000EAF7822B4F5F5F4F4530510559F7089512
:100C4000E92FEE0FE90FEE0F8E0F982F977041E00E
:100C500001C0440F9A95EAF786958695869595E0AA
:100C6000899FF0011124E65CFA4F30E020E070E04B
:100C70005191DF011197CB01022E02C09695879505
:100C80000A94E2F7817081958527842385278C93C8
:100C90002F5F3F4F2530310559F708958091390571
:100CA00090910805981301C008958F5F8770FACF5F
:100CB0002091E8013091E9012817390771F09093EC
:100CC000E9018093E801E0919E05F0919F0530973E
:100CD00021F00084F185E02D099408952091E6012A
:100CE0003091E7012817390771F09093E70180935D
:100CF000E601E0919E05F0919F05309721F0068076
:100D0000F781E02D09940895E0919E05F0919F05EB
:100D1000309721F00190F081E02D099480E0089552
:100D200090919C0592FF06C0282F2871283069F405
:100D3000877F846093FF06C0282F2871283161F4D3
:100D4000877E846194FD877E0895282F2471243046
:100D500089F78B7F8860EECF282F2471243191F79B
:100D60008B7E8861EFCFCF93DF93972F70E026E0E3
:100D7000929F600D711D1124FB0134E5839FE00DEE
:100D8000F11D1124EE0FFF1FE455FF4FC591D491C3
:100D9000CE01C238D105B9F108F03EC0C133D1054A
:100DA00009F482C048F5C932D10509F476C0CA32C7
:100DB000D10509F480C0C11540E5D40708F0AFC0E3
:100DC000C11550E4D50708F0AEC1C83ED10508F002
:100DD0008AC0C03ED105E8F4C83AD10508F072C017
:100DE000C53AD10508F0FBC0C130D10591F020977C
:100DF00029F1249770F422C0C533D10509F446C007
:100E0000C933D105C1F620919C05237011F080EE05
:100E100090E0DF91CF910895C33ED10539F188F478
:100E2000C03ED105E1F0C23ED10529F620919C05D6
:100E300022FFEFCF83EE90E024FFEBCF90E080E045
:100E4000E8CFC63ED105C9F0C73ED10509F0B3CF02
:100E500020919C0523FF0EC086EE90E0DACF209112
:100E60009C0520FFD6CF89E390E0D3CF20919C054D
:100E700022FDA9C124FFCDCFE1CF20919C0523FF06
:100E8000C8CF87EE90E024FDD9CFC3CF20919C0539
:100E900025FFBFCF89E290E0BCCF20919C0525FFC4
:100EA000B8CF85E390E0B5CF20919C0526FFB1CF68
:100EB0008AE290E0AECF20919C0526FFAACF81E385
:100EC00090E0A7CFCF3BD10508F498C0C03CD10536
:100ED00008F4B4CFCE01880F991F845D9040FC01C7
:100EE0008591949196CFC11520E2D20760F4C11587
:100EF00031E0D30708F08DCFCE019065C03FD1051A
:100F000008F087CF9BCFC11540E3D40708F003C199
:100F1000FE01FF70EE0FFF1FE455FF4FE1CFC1153B
:100F200055E5D50748F5C11584E5D80708F02CC16B
:100F3000C11592E5D90750F4C11521E5D20708F48F
:100F4000F6C09C2F8827816F906A63CF2C2F26953F
:100F50002695AE0143705527C115D34508F005C14C
:100F600081E090E002C0880F991F4A95E2F750E2B5
:100F7000259F90011124F5C0C1154AE5D407A0F4BE
:100F8000C11559E5D50708F00EC1C11586E5D8078A
:100F900008F4FFC0C11598E5D90708F44FCF9C2F7E
:100FA0008827806F906A35CFC1152BE5D20708F4EA
:100FB00045CFCE01C1153CE5D30708F401C19056D9
:100FC0008115904208F03ACF8D2F8F710E949006C4
:100FD00090E0982F882788279F718C2BE2C081E8AA
:100FE00090E4C53AD10509F414CF82E890E4C63AFA
:100FF000D10509F40ECF83E890E40BCF82EE94E4A0
:10100000C83AD10509F405CF89EE94E4C93AD1056F
:1010100009F4FFCE8AEE94E4CA3AD10509F4F9CE78
:1010200085EB94E4CB3AD10509F4F3CE86EB94E456
:10103000CC3AD10509F4EDCE83EB94E4CB3BD1055A
:1010400009F4E7CE84EB94E4CC3BD10509F4E1CE7E
:1010500087EB94E4CD3AD10509F4DBCE8CEC94E433
:10106000C03BD10509F4D5CE8DEC94E4CE3AD10540
:1010700009F4CFCE83E895E4CF3AD10509F4C9CE7F
:101080008AE895E4C13BD10509F4C3CE82E995E431
:10109000C23BD10509F4BDCE84E995E4C33BD1053B
:1010A00009F4B7CE81E296E4C43BD10509F4B1CE90
:1010B00083E296E4C53BD10509F4ABCE84E296E425
:1010C000C63BD10509F4A5CE85E296E4C73BD10520
:1010D00009F49FCE86E296E4C83BD10509F499CE87
:1010E00087E296E4C93BD10509F493CE8FE694E4F8
:1010F000CD3BD10509F48DCE80E794E4CE3BD105FC
:1011000009F487CE80E094E4CA3BD10509F081CE92
:101110008AE296E47ECECE019927D3FF02C0986C76
:1011200078CE906C76CECE019F70906A72CE9E0182
:10113000E4E036952795EA95E1F723708C2F8695A4
:101140008695837050E2859FC0011124AC01522B1B
:101150009A01C37081E090E002C0880F991FCA9580
:10116000E2F7822B932B9C6854CE81E090E002C082
:10117000880F991F4A95E2F740E2249F90011124BD
:10118000822B932B9A6845CE9C2F8827846F906A78
:1011900040CE8C2F0E94900690E0982F88278827B9
:1011A0009F71906236CE8C2F8F700E94900634E033
:1011B000D695C7953A95E1F7CF709C2F906929CEC7
:1011C0009927906626CE82EE90E023CEBF92CF92F2
:1011D000DF92EF92FF920F931F93CF93DF938C01D7
:1011E000C0907105D0907205E0907305F090740581
:1011F00080917F0590918005A0918105B091820535
:10120000C82AD92AEA2AFB2ACFE1D0E0BC2ED7018E
:10121000C6010C2E04C0B695A795979587950A949C
:10122000D2F780FD0EC0219788F7B12C8B2DDF916E
:10123000CF911F910F91FF90EF90DF90CF90BF90D3
:101240000895B8018C2F0E94B306019761F3EECF89
:10125000CF93DF93EC010E94E608BE01DF91CF91AE
:101260000C94B3060E942809292F2F7092959F7025
:1012700092509E3078F4E92FF0E0E855FC4D0C9444
:101280003322803F19F020F4883E20F481E0089555
:10129000843FE1F380E00895883EC0F3813FD1F7B9
:1012A000F5CF822F869586958695089527982F9855
:1012B000089526982E98089525982D980895569863
:1012C0005E980895279A2F9A0895269A2E9A08953F
:1012D000259A2D9A089584B1807F84B985B1807F45
:1012E00085B98AB1837F8AB98BB1837F8BB93E98E8
:1012F0004698089580B38C7080BB81B3836F81BBA7
:101300000895CF93DF93EC0180EEFE01099581EE05
:10131000FE01DF91CF9109940F931F93CF93DF9339
:1013200000D00F92CDB7DEB78C010E94130482303B
:1013300011F0843021F584E089831B830A8382E0E5
:101340008093E9008FEF9091E800815095FD06C0F1
:1013500095ED9A95F1F700008111F5CF8091E800A5
:1013600085FF0DC050E040E063E070E0CE010196E3
:101370000E94D9028091E8008E778093E8000F9058
:101380000F900F90DF91CF911F910F910895CF9300
:10139000DF9300D00F92CDB7DEB72091EE05243059
:1013A00031F523E02983805891099B838A8382E069
:1013B0008093E9008FEF9091E800815095FD06C081
:1013C00095ED9A95F1F700008111F5CF8091E80035
:1013D00085FF0DC050E040E063E070E0CE01019673
:1013E0000E94D9028091E8008E778093E8000F90E8
:1013F0000F900F90DF91CF910895CF93DF93EC0181
:101400000E941304823011F08430F9F482E080935A
:10141000E9008FEF9091E800815095FD06C095EDB1
:101420009A95F1F700008111F5CF8091E80085FFD2
:101430000CC050E040E066E070E0CE010E94D902AE
:101440008091E8008E778093E800DF91CF91089536
:10145000CF93DF93EC010E941304823011F08430AB
:10146000B9F5809116018823B1F180919C0587FF21
:1014700032C060E282E08093E9008FEF9091E80053
:10148000815095FD06C095ED9A95F1F70000811108
:10149000F5CF8091E80085FF1BC08091160170E0B8
:1014A00050E040E0811104C050E040E068E070E0AE
:1014B000CE010E94D9028091E8008E778093E800E7
:1014C00080E2FE01ACECB5E001900D928A95E1F767
:1014D000DF91CF91089568E081E0CDCF0E945F0950
:1014E0000E945C090E9459090E9456098FEF90E002
:1014F000909389008093880090938B0080938A005A
:1015000090938D0080938C000E9468092FEF80E7F4
:1015100092E0215080409040E1F700C000000E941E
:1015200065092FEF80E792E0215080409040E1F77D
:1015300000C000000E9462092FEF80E792E0215076
:1015400080409040E1F700C000000E945C092FEF4E
:1015500080E792E0215080409040E1F700C0000019
:101560000E9459092FEF80E792E02150804090407F
:10157000E1F700C000000E9456090E945F090E9426
:101580005C090E9459090C94560960918A058CE007
:1015900090E00C9447226DEE7EEF90E080E00E9498
:1015A000652260E082E090E00E94472260E083E0F4
:1015B00090E00E94472210927F05109280051092C1
:1015C00081051092820560E084E090E00E9447224D
:1015D00060E085E090E00E94472260E086E090E0D5
:1015E0000E9447226FEF87E090E00E94472240E090
:1015F00050E0BA0188E090E00E94592260E08DE05E
:1016000090E00E94472240E050E0BA0188E190E07B
:101610000E94592260E087E190E00E94472240E06A
:1016200050E0BA018CE190E00E94592260E080E233
:1016300090E00E94472240E050E0BA018FE090E045
:101640000E94592240E050E0BA0183E190E00C94FE
:101650005922CF93C82F873070F580910A0190915D
:101660000B01892B89F564E670E080E40E94582123
:1016700090930B0180930A01892BD1F464E670E00A
:1016800082E10E94B42190930B0180930A01892B7F
:1016900079F481E090E001C0880FCA95EAF764E62A
:1016A00070E080950E94B42190930B0180930A0111
:1016B000CF910C9407228A30B9F040F4883071F051
:1016C000893079F0209A2898CF9108958C3091F044
:1016D00070F08D30B9F73E9A4698F6CF219A299846
:1016E000F3CF229A2A98F0CF239A2B98EDCF529AD3
:1016F0005A98EACF539A5B98E7CF80E290E09093B4
:101700000B0180930A018091E30181110EC00E94B8
:10171000522181E08093E3012FEF83ED90E321508C
:1017200080409040E1F700C0000064E670E080E493
:101730000E94582190930B0180930A01892B09F094
:101740004EC064E670E080E00E94B42190930B01EB
:1017500080930A01892B09F042C064E670E080E0C2
:101760000E94B42190930B0180930A01892BB9F553
:1017700064E670E08FE30E94B42190930B018093A4
:101780000A01892B61F50E94072264E670E080E47B
:101790000E94582190930B0180930A01892BF9F440
:1017A00064E670E08CE00E94B42190930B0180937A
:1017B0000A01892BA1F464E670E080E00E94B42164
:1017C00090930B0180930A01892B49F464E670E041
:1017D0008FE30E94B42190930B0180930A010E9431
:1017E000072280910A010895CF93873008F040C006
:1017F00080910A0190910B01C0E0892B71F464E69D
:1018000070E080E40E94582190930B0180930A01BC
:10181000892B31F0C0E00E9407228C2FCF910895D0
:1018200064E670E083E10E94B42190930B01809301
:101830000A01892B79F764E670E081E40E9458215F
:1018400090930B0180930A01892B21F784E690E0A5
:101850000E94E32197FF05C090930B0180930A013A
:10186000D9CFC82FC09510920B0110920A01D3CF87
:10187000CFB18FB1869586958C73C3708C2BC82F92
:10188000C095CBCF78941F921FB61F9211248F93CF
:101890009F93AF93BF938091830590918405A0910E
:1018A0008505B09186050196A11DB11D8093830524
:1018B00090938405A0938505B0938605BF91AF9161
:1018C0009F918F911F901FBE1F9018952FB7F8946E
:1018D0008091830590918405A0918505B09186053E
:1018E0002FBF0895E0919E05F0919F05309749F034
:1018F00082E08093AF050480F581E02D8FEA95E0CA
:1019000009950E94660C9093B7058093B6050895DB
:10191000CF93DF930E94660CC0917C05D0917D052A
:101920008C179D0758F00E94660C9C012C1B3D0BE8
:1019300081E02838334160F480E00AC00E94660CE0
:10194000C095D095C80FD91F81E0C838D341A0F306
:10195000DF91CF91089580917B0590917A05892B35
:1019600090917905892B8093C00180917E05882311
:10197000E9F00E94880C81110E9479058091C001D4
:1019800090917E05892B8093C00180911601882358
:1019900041F180919C0587FF24C08EE1E2ECF1E0EB
:1019A00090E0815000F591110E947905E0919E052B
:1019B000F0919F053097E1F080911601882359F04E
:1019C00080919C0587FF07C08091C0018093C10171
:1019D00085E08093C0010280F381E02D80EC91E0EE
:1019E000099486E0DBCF21912223D9F29F5FD9CFE2
:1019F000089510927A05109279050E94AB0C86E04A
:101A0000EFEAF5E0DF011D928A95E9F71092B5053E
:101A1000109287050E94720C90E080E00E946E0692
:101A200090E080E00C945806CF92DF92EF92FF9204
:101A3000CF936B017C01C701AA27BB27C0E10097A8
:101A4000A105B10519F4D701CB01C0E0492F5A2FE8
:101A50006B2F7727411551056105710519F0C85F96
:101A6000DB01CA01AC01BD01E4E0769567955795AD
:101A70004795EA95D1F7411551056105710519F0B2
:101A8000CC5FDB01CA01AC01BD0132E07695679500
:101A9000579547953A95D1F741155105610571055F
:101AA00019F0CE5FDB01CA01B695A795979587958A
:101AB000892B8A2B8B2B09F0CF5F0E945F090E9434
:101AC0005C090E9459090E945609C150C73040F470
:101AD000EC2FF0E0EA54FC4D0C9433220E9468098C
:101AE000C0927105D0927205E0927305F092740570
:101AF000CF91FF90EF90DF90CF900C94F90C0E9463
:101B000068090E946509ECCF0E9468090E94620979
:101B1000E7CF0E9468090E946509F8CF0F931F93D1
:101B200041E050E060E070E004C0440F551F661FC4
:101B3000771F8A95D2F7CB01BA0160957095809591
:101B40009095009171051091720520917305309167
:101B5000740560237123822393231F910F910C94AA
:101B6000140D909178058095892380937805282F0E
:101B7000277071F4282F082E000C330B92171306D0
:101B800039F08595859585950E948E0D0C948B0571
:101B900008950F931F9341E050E060E070E004C0AF
:101BA000440F551F661F771F8A95D2F780917105E4
:101BB00090917205A0917305B09174058A019B0103
:101BC000082B192B2A2B3B2BC901B8011F910F9110
:101BD0000C94140D98E0899F90011124622B60935E
:101BE00078050E94C90D0E94660C9093770580933A
:101BF0007605089560E070E0CB010C94140D6093BD
:101C00007F057093800580938105909382050C94E5
:101C1000F90C10927B0580911601E2ECF1E088232B
:101C200059F080919C0587FF07C08EE1DF011D926E
:101C30008A95E9F70C94F90C86E0F8CF1F93CF93BF
:101C4000DF93CDB7DEB7AA970FB6F894DEBF0FBE0D
:101C5000CDBF80EF95E02091F100FC012193CF01F1
:101C6000F5E0883F9F07B9F78091F105833009F4CB
:101C70006FC0B8F4813009F446C0823009F4B0C0B6
:101C80008091E80083FF87C28091F0059091F10573
:101C90009A3008F080C2E92FF0E0E354FC4D0C9438
:101CA00033228A3009F48BC08B3009F46EC089303E
:101CB00039F78091F005813219F78091F405909100
:101CC000F5050297E8F68091E800877F8093E800A9
:101CD0008091E80082FF37C09091F3008091F2007C
:101CE000029729F48091F1008B7F813021F480915B
:101CF000F1008093CB058091E8008B778093E8001A
:101D00000E940303BDCF8091F005813A09F0B8CF5E
:101D10008091E800877F8093E8008091F40590919E
:101D2000F505892B61F460E28CEC95E070E00E948F
:101D3000B5038091E8008B778093E800A1CF60E045
:101D400090E080E0F3CF8091EE058111C1CF98CF74
:101D50008091F005813A09F093CF8091F40590913C
:101D6000F505892B09F08CCF8091E800877F80935F
:101D7000E8008091E80080FFFCCF809116018093FD
:101D8000F1008091E8008E77B9CF8091F005813223
:101D900009F076CF8091F4059091F505892B09F033
:101DA0006FCF8091E800877F8093E8000E94030353
:101DB0008091F205809316010E94090E61CF8091F7
:101DC000F005813209F05CCF8091E800877F809335
:101DD000E8000E9403038091F3058093CA0550CF69
:101DE0008091F005813A09F04BCF8091E800877F20
:101DF0008093E8008091E80080FFFCCF8091CA05C5
:101E0000BECF803899F0823809F0C5C18091F405C1
:101E10008F70873008F0BFC18093E9008091EB009C
:101E200085FB882780F91092E90006C08091EC05B7
:101E30009091ED05911182609091E800977F9093C9
:101E4000E8008093F1001092F1008091E8008E7715
:101E50009EC1882309F48CC1823009F09CC1809115
:101E6000F20581118FC18091F4058F702FEF280F3B
:101E7000263008F090C18093E9002091EB0020FF0C
:101E800081C1933031F48091EB0080628093EB004C
:101E900079C19091EB0090619093EB0021E030E0EC
:101EA00001C0220F8A95EAF72093EA001092EA0017
:101EB0008091EB008860EACF81116DC11091F2052D
:101EC0001F778091E3008078812B8093E3008091DD
:101ED000E800877F8093E8000E9403038091E80078
:101EE00080FFFCCF8091E30080688093E30082E074
:101EF000111183E08093EE054EC18058823008F0C6
:101F00004AC18091F2059091F3058C3D23E0920740
:101F1000A1F583E08A838AE289834FB7F894DE01D2
:101F2000139620E03EE051E2E32FF0E0509357009B
:101F3000E49120FF03C0E295EF703F5FEF708E2FBA
:101F400090E0EA30C0F0C7968D939D932F5F2431C7
:101F500059F74FBF8091E800877F8093E8006AE2DD
:101F600070E0CE0101960E94B5038091E8008B7766
:101F70008093E80010C1C096E7CF4091F4055091DE
:101F8000F505292F33272330310509F445C078F5AD
:101F90002130310509F47BC08BE390E0ECE4F4E000
:101FA0002230310509F0F7C02091E800277F209307
:101FB000E8002091F6053091F7058217930708F4A1
:101FC0009C0140E02115310509F070C041116EC03F
:101FD0008091E80082FDC9CF8091EE05882329F227
:101FE000853019F28091E80083FFF2CFBECF213215
:101FF000310509F440C02232310509F0CCC0411549
:10200000510509F44EC04130510509F0C4C080ECBF
:1020100090E0ECE4F3E0C8CF992781309105D9F046
:10202000009771F082309105F1F0039709F0B3C089
:10203000E9E9F4E0E4918E2F90E0E9E9F4E007C0EB
:10204000EFECF4E0E4918E2F90E0EFECF4E00097F9
:1020500009F4A1C0A9CFE7EBF4E0E4918E2F90E062
:10206000E7EBF4E0F4CFEFE9F4E0E4918E2F90E0B9
:10207000EFE9F4E0ECCF4115510571F04130510525
:1020800009F089C089E090E0E7E7F4E08DCF82E1D4
:1020900090E0E7E8F4E088CF89E090E0EEE5F4E056
:1020A00083CF80E490E0ECE0F4E07ECF8091EE0519
:1020B000882309F45ACF853009F457CF8091E8007E
:1020C00083FD53CF8091E80082FD82CF8091E800AC
:1020D00080FF78CF9091F3008091F20021153105B7
:1020E00019F08830910550F041E0089709F040E080
:1020F0008091E8008E778093E80064CF449140930C
:10210000F1003196215031090196E8CF803809F06D
:1021100042C08091E800877F8093E8008091EF05BE
:102120008093F10092CE811136C01091F2051230E9
:1021300090F58091E800877F8093E8001093EF0589
:102140000E940303112311F084E005C08091E30095
:1021500087FDFACF81E08093EE0542E061EC81E0FB
:102160000E94220342E261EC82E00E94220313C03B
:102170008091F205813079F481E0933009F080E0BC
:102180008093ED051092E9008091E800877F8093AD
:10219000E8000E9403038091E80083FF0AC0809159
:1021A000E800877F8093E8008091EB008062809355
:1021B000EB00AA960FB6F894DEBF0FBECDBFDF913D
:1021C000CF911F9108951F920F920FB60F92112475
:1021D0002F933F934F935F936F937F938F939F932F
:1021E000AF93BF93CF93DF93EF93FF93D091E90029
:1021F000DF708091EC00C82FC17080FDC0E81092A4
:10220000E9008091F000877F8093F00078940E942D
:102210001E0E1092E9008091F00088608093F0001B
:10222000CD2BCF70C093E900FF91EF91DF91CF915B
:10223000BF91AF919F918F917F916F915F914F91DE
:102240003F912F910F900FBE0F901F9018951F92E6
:102250000F920FB60F9211242F933F934F935F93DA
:102260006F937F938F939F93AF93BF93EF93FF935E
:102270008091E10082FF09C08091E20082FF05C0E9
:102280008091E1008B7F8093E1008091DA0080FFF4
:1022900024C08091D80080FF20C08091DA008E7F1A
:1022A0008093DA008091D90080FF9FC080E189BDD2
:1022B00082E189BD09B400FEFDCF81E08093EE0587
:1022C0008091C905811109C00E9489020E945403AE
:1022D0008091E20084608093E2008091E10080FFC1
:1022E00017C08091E20080FF13C08091E2008E7FD2
:1022F0008093E2008091E20080618093E20080910F
:10230000D80080628093D80019BC85E08093EE05E8
:102310008091E10084FF2DC08091E20084FF29C0FC
:1023200080E189BD82E189BD89B5982F917080FFD8
:10233000FBCF8091D8008F7D8093D8008091E10001
:102340008F7E8093E1008091E2008F7E8093E20097
:102350008091E20081608093E2008091EF05882304
:1023600009F449C084E08093EE050E94090E0E94A2
:1023700084068091E10083FF27C08091E20083FF03
:1023800023C08091E100877F8093E10082E0809309
:10239000EE051092EF058091E1008E7F8093E100C1
:1023A0008091E2008E7F8093E2008091E200806164
:1023B0008093E20042E060E080E00E94220380918E
:1023C000F00088608093F000FF91EF91BF91AF9192
:1023D0009F918F917F916F915F914F913F912F913D
:1023E0000F900FBE0F901F90189519BC1092EE051C
:1023F0001092C90572CF8091E30087FD93E090931E
:10240000EE05B3CF882321F00E9484050C94AB0C19
:102410000895882339F090917B05982B90937B0544
:102420000C94AB0C0895882309F452C0823871F4DF
:102430000E94840681FF4CC089E30E94C3050E946C
:10244000AB0C89E30E9498050C94AB0C833859F4CB
:102450000E94840680FF3CC083E50E94C3050E9461
:10246000AB0C83E5EFCF843859F40E94840682FFD9
:102470002FC087E40E94C3050E94AB0C87E4E2CF23
:102480009CEF980F913AF0F290E2980F983050F448
:10249000877091E001C0990F8A95EAF7892F0E9411
:1024A0008405D2CF9BE5980F933020F490E080E034
:1024B0000C946E0698E5980F973120F490E080E038
:1024C0000C945806803F20F00E9422040C94720C59
:1024D0000895882309F408C18238B9F40E9484065B
:1024E00081FD02C189E30E94C3050E94AB0C2FEF5E
:1024F00081EE94E0215080409040E1F700C0000060
:1025000089E30E9498050C94AB0C8338A1F40E94D7
:10251000840680FDE9C083E50E94C3050E94AB0CE0
:102520002FEF81EE94E0215080409040E1F700C011
:10253000000083E5E6CF8438A1F40E94840682FD82
:10254000D3C087E40E94C3050E94AB0C2FEF81EE3D
:1025500094E0215080409040E1F700C0000087E403
:10256000D0CF9CEF980F913A18F40E94C305CBCFBF
:1025700090E2980F983068F4877021E030E001C055
:10258000220F8A95EAF780917B05822B80937B0549
:10259000BACF9BE5980F933070F4853A31F0863AC4
:1025A00039F083E890E00C946E0681E890E0FBCF70
:1025B00082E890E0F8CF98E5980F973108F08EC048
:1025C000883A09F446C0893A09F446C08A3A09F4BF
:1025D00046C08B3A09F446C08C3A09F446C08B3B9E
:1025E00009F446C08C3B09F446C08D3A09F446C054
:1025F000803B09F446C08E3A09F446C08F3A09F48C
:1026000046C0813B09F446C0823B09F446C0833B87
:1026100009F446C0843B09F446C0853B09F446C032
:10262000863B09F446C0873B09F446C0883B09F461
:1026300046C0893B09F446C08D3B09F446C08E3B39
:1026400009F446C08A3B09F446C090E080E00C944F
:10265000580682EE90E0FBCF89EE90E0F8CF8AEE4C
:1026600090E0F5CF85EB90E0F2CF86EB90E0EFCFF6
:1026700083EB90E0ECCF84EB90E0E9CF87EB90E048
:10268000E6CF8CEC90E0E3CF8DEC90E0E0CF83E8F8
:1026900091E0DDCF8AE891E0DACF82E991E0D7CF0F
:1026A00084E991E0D4CF81E292E0D1CF83E292E05D
:1026B000CECF84E292E0CBCF85E292E0C8CF86E233
:1026C00092E0C5CF87E292E0C2CF8FE690E0BFCF25
:1026D00080E790E0BCCF8AE292E0B9CF803F20F063
:1026E0000E94E7040C94720C0895CF93C82F0E94A7
:1026F0006912C93349F42FEF87EE93E021508040EF
:102700009040E1F700C000008C2FCF910C94131281
:10271000877021E030E001C0220F8A95EAF78091AE
:102720007A05822B80937A050C94AB0C877021E09C
:1027300030E001C0220F8A95EAF7209580917A0552
:10274000282320937A050C94AB0C0F931F93CF93FF
:10275000DF93C62FD42F022FFC0182818823A1F0A2
:102760006093FC040E94660C9093E5018093E40161
:10277000C77081E001C0880FCA95EAF7DF91CF9159
:102780001F910F910C9409121091FC04161335C07F
:102790008091E4019091E5010E944F05883C9105EC
:1027A00060F5C0E2CD0F1D17B9F080E2810F8830CF
:1027B00040F4177081E001C0880F1A95EAF70E9473
:1027C0000212C83048F481E09D2F977001C0880F35
:1027D0009A95EAF70E940912802F0E947513C8305B
:1027E00098F4D77081E001C0880FDA95EAF7DF919D
:1027F000CF911F910F910C940212C77081E001C01C
:10280000880FCA95EAF7F3CFDF91CF911F910F910F
:1028100008954F925F926F927F928F929F92AF92A4
:10282000BF92CF92DF92EF92FF920F931F93CF93BD
:10283000DF9300D000D00F92CDB7DEB77C01FC0152
:1028400083819481892B39F01081D180812F8D2152
:102850008F3F09F0CDC60F900F900F900F900F9003
:10286000DF91CF911F910F91FF90EF90DF90CF906C
:10287000BF90AF909F908F907F906F905F904F90A0
:1028800008950E94E608082F682F89819A810E9486
:102890002006E12FF0E026E0D29EE00DF11D11248C
:1028A00034E5039FE00DF11D1124EE0FFF1FE455E9
:1028B000FF4F0591149101151105D9F4F70182819B
:1028C000882349F20F900F900F900F900F90DF9197
:1028D000CF911F910F91FF90EF90DF90CF90BF901D
:1028E000AF909F908F907F906F905F904F900C94DF
:1028F000CB0A8091FA0481110AC1F701828181110A
:102900000AC00230110509F4D0C008F09EC00130A1
:10291000110509F4BCC0F7018281882389F0033EC8
:10292000FCE51F0709F491C108F07BC1013E3CE5BD
:10293000130709F483C1023E8CE5180709F483C12B
:1029400017FF52C0F7018281882309F44DC080919E
:102950007B058093FB0410927B0580918A05813072
:1029600009F47BC1882309F474C1823009F484C15D
:10297000843009F488C18FE39CE90197F1F700C026
:1029800000005801E894B7F84CE0C42ED12C950112
:102990000C2C02C0369527950A94E2F72F7087E237
:1029A00090E031F0822F90E02A3008F071C14D960E
:1029B0000E94751394E0C91AD108ECEFCE16EFEF20
:1029C000DE0629F780918A05813009F467C18823E2
:1029D00009F460C1823009F45DC1843009F462C138
:1029E0008091FB0480937B05003FFCE51F0709F401
:1029F000C4C108F059C1083D3CE5130709F4B9C149
:102A0000093D8CE5180709F4C8C1073D9CE5190785
:102A100009F056C126E241EE61EEC7010F900F901A
:102A20000F900F900F90DF91CF911F910F91FF901A
:102A3000EF90DF90CF90BF90AF909F908F907F905E
:102A40006F905F904F900C94A51304301105C9F15D
:102A50000530110509F05FCFA0900601B090070185
:102A6000C0907105D0907205E0907305F0907405E8
:102A70000E94090E0E94FA0D02EF14E0A016B106A2
:102A8000A9F1C8010E94091406501109F7CF0E944C
:102A9000090E0E94FA0D88EF91E09093F90480935B
:102AA000F80481E08093FA04D6CE0E94090E0E94B9
:102AB000FA0D82EF94E09093F9048093F80482E099
:102AC000F1CFA0900801B0900901C0907105D0909D
:102AD0007205E0907305F09074050E94090E0E9443
:102AE000FA0D08EF11E0A016B10659F40E94090E84
:102AF000C0927105D0927205E0927305F092740550
:102B0000AACEC8010E9409140A5F1F4FECCF033000
:102B1000110571F120F00630110508F49CCEF70183
:102B20009281813009F458C0823009F0F4CE2091AE
:102B3000080130910901A091F804B091F9049111B4
:102B400005C084E0A23FB80709F4E5CECD010696A2
:102B50002817390709F4DFCE86E0F70101900D92BE
:102B60008A95E1F78091F8049091F904069754C092
:102B7000F7019281992309F46ECE813029F08230D9
:102B8000B9F01092FA0467CE8091F8049091F9049C
:102B9000F1E0883F9F0729F0FC013697228121113F
:102BA00005C09093090180930801EBCFCF01F0CFCE
:102BB0008091F8049091F90424E0823F920729F073
:102BC000FC0136962281211105C090930701809364
:102BD0000601D7CFCF01F0CF209106013091070138
:102BE000A091F804B091F904911105C0F1E0A83F5B
:102BF000BF0709F490CECD0106972817390709F4CD
:102C00008ACE86E0F70101900D928A95E1F78091D6
:102C1000F8049091F90406969093F9048093F804CF
:102C20007ACE043E9CE5190791F084E0053EECE580
:102C30001E0709F085CE80938A0502C010928A058E
:102C40000E94C50A7DCE81E0F6CF82E0F4CF83E01A
:102C5000F2CF82EE0E9469128ECE88E893E10E9444
:102C6000810988E10E94691288E10E94131286E9B5
:102C700093E10E9481097FCE82EE0E94691287E56E
:102C80000E94751378CE86EE0E94751388E1F8CF06
:102C900006978ECE82EE0E941312A2CE8CE20E9484
:102CA00075139ECE88E2FBCF023FECE51E0709F4C8
:102CB0006CC008F466C0033F2CE5120709F469C034
:102CC000F7018281882309F4A4C41092FC04053121
:102CD000FCE51F0708F064C002302CE5120708F07D
:102CE000E4C001153CE5130709F492C001301C450E
:102CF00009F4CBC0F70100811181882309F461C177
:102D0000C8010E94E608D82E682FC8010E9420063C
:102D1000B8018D2D0E94B3068C01A82EF701C58045
:102D2000C2943FE0C322D280D11010927A058091E4
:102D30007805877079F0DD2069F080E2800F8830B7
:102D400048F082E00E94B10D809178058770992447
:102D500093948111912C812E82942FE08222FBE0AA
:102D6000F81508F465C1E82DF0E0E953FC4D0C942A
:102D7000332227E245EE65EE50CE26E241EE60EECC
:102D80004CCE27E245EE64EE48CE26E241EE62EEFE
:102D900044CE27E245EE66EE40CE28E241E0EBCF9E
:102DA0000C3DECE51E0709F479C040F506311C45E1
:102DB00009F0A0CF80917B058A7A91E009F490E038
:102DC0009093FD048111F9C089E20E94C3050F9020
:102DD0000F900F900F900F90DF91CF911F910F9157
:102DE000FF90EF90DF90CF90BF90AF909F908F902B
:102DF0007F906F905F904F900C94AB0C0D3D3CE535
:102E0000130709F44EC00E3D1C4509F45BCD72CF8B
:102E10000E94090EEFEFF4E32CE0E150F040204077
:102E2000E1F700C00000F89481E08093E00080E2C8
:102E30008093D8001092C9008FE19EE40197F1F7CA
:102E400000C000001DBA109268001CBC10BE1FBA62
:102E500010927A0010926E0010926F001092710022
:102E6000109272001092C9001092BC0014B817B8EA
:102E70001AB81DB810BA1092BC0015B818B81BB813
:102E80001EB811BA0C94003FE6CC9091B905892F79
:102E90008E7F90FF81608093B905DDCC1092C805CC
:102EA000DACC82E08093C805D6CC90E080E00E9426
:102EB00041228D3E9E4F11F00E94CB0A84E090E0AB
:102EC0000E94392290E090939D0580939C05F80123
:102ED000E350FC4580919C058160E231F10538F4B6
:102EE000ED52FC4D0C94332280919C0582608093BE
:102EF0009C0560919C0584E090E00E9447220F9021
:102F00000F900F900F900F90DF91CF911F910F9125
:102F1000FF90EF90DF90CF90BF90AF909F908F90F9
:102F20007F906F905F904F900C94090E80919C055C
:102F30008460DDCF80919C058860D9CF80919C050D
:102F40008061D5CF80919C058062D1CF80919C0516
:102F50008064CDCF80919C058068C9CF80919C050D
:102F60008C60C5CF80919C058E7FC1CF80919C05E0
:102F70008D7FBDCF80919C058B7FB9CF80919C05C3
:102F8000877FB5CF80919C058F7EB1CF80919C05C6
:102F90008F7DADCF80919C058F7BA9CF80919C05C3
:102FA0008F77A5CF80919C05837FA1CF90919C05C1
:102FB000892F97FB87F980589ACF85E306CF85E361
:102FC0004AC3C8010E94F705D82EA2CE212F2F7028
:102FD000C22E107F19F0C29490EFC922DD20C9F0F3
:102FE000CC2069F080E2800F883010F0A1100BC077
:102FF00080917B05C82AC0927B050E94AB0C802F74
:103000000E94691215C080917A05C82AC0927A057B
:10301000F4CF802F0E941312CC2051F0005E0830B4
:1030200010F0A1103AC08C2D0E9484050E94AB0CB8
:10303000282D2850330B2430310510F40E948406CB
:10304000992009F408CC8091780580FD04CCF70123
:1030500012828595859585950E94C90DC7010E94AC
:103060000914809178058595859585950F900F9029
:103070000F900F900F90DF91CF911F910F91FF90C4
:10308000EF90DF90CF90BF90AF909F908F907F9008
:103090006F905F904F900C948E0DC09480917A0544
:1030A000C822C0927A05C2CF312F3F70B32E107F55
:1030B000103219F0B29480EFB822802FAA2051F07C
:1030C00091E0A91609F446C0DD2009F44DC0CC20DA
:1030D00029F195CFDD2031F1C11004C080917E052A
:1030E0008B291DC0E1E0CE120FC080917E05B82A69
:1030F000B81609F49DCF0E94660C90937D058093CD
:103100007C05B0927E0594CFF5E0CF12E7CF0E9408
:10311000790580917505B812B09275058B2D0E94C6
:10312000091286CFC11006C00E9479058B2D0E941E
:1031300002127ECF21E0C21208C080917B058B2154
:1031400009F476CF0E949205EFCF35E0C31609F45B
:103150006FCFEACFDD2029F081E08C1508F468CF2D
:10316000DDCFC11065CFE2CFCC2001F3893349F424
:103170009FEFE7EEF3E09150E040F040E1F700C050
:103180000000802F0E94131253CF812F86958695C1
:10319000837061F0813009F04BCFC8019370D1107A
:1031A00002C090E080E00E94580642CFC8019370B0
:1031B000D11002C090E080E00E946E0639CFDD2081
:1031C00009F1053F99F0063FB9F0043F49F48091B9
:1031D000FE049091FF0481609093FF048093FE04AD
:1031E000802F0E94E7040E94720C22CF8091FE047F
:1031F0009091FF048260F0CF8091FE049091FF04D3
:103200008460EACF053F89F0063FA9F0043F49F406
:103210008091FE049091FF048E7F9093FF04809331
:10322000FE04802F0E942204DECF8091FE04909144
:10323000FF048D7FF2CF8091FE049091FF048B7F7D
:10324000ECCF812F837009F066C0D110F1CE802FB2
:10325000829586958770880F880F602F6F70462E35
:10326000512C712C612C082E04C0440C551C661C7A
:10327000771C0A94D2F740E050E0BA0104FF0FC077
:103280004FE050E060E070E004C0440F551F661F3F
:10329000771F8A95D2F74095509560957095812F4C
:1032A000869586958370823019F1D8F400917F0558
:1032B000109180052091810530918205813069F05F
:1032C0004429552966297729CB01BA016023712346
:1032D000822393230E94FF0DABCE402A512A622AFB
:1032E000732ACB01BA016429752986299729F2CF5F
:1032F000442955296629772900917F051091800579
:103300002091810530918205CB01BA016027712798
:1033100082279327DFCF8695DD2011F0812F8170E2
:10332000882309F485CE802F829586958770880F33
:10333000880F602F6F70462E512C712C612C082E37
:1033400004C0440C551C661C771C0A94D2F740E05C
:1033500050E0BA0104FF0FC04FE050E060E070E0C1
:1033600004C0440F551F661F771F8A95D2F74095FA
:10337000509560957095812F8695869583708230E3
:1033800019F1D8F40091710510917205209173051F
:1033900030917405813069F04429552966297729CF
:1033A000CB01BA0160237123822393230E94140D61
:1033B0003FCE402A512A622A732ACB01BA016429DE
:1033C000752986299729F2CF442955296629772915
:1033D000009171051091720520917305309174056B
:1033E000CB01BA016027712782279327DFCF1F7097
:1033F000DD2029F0812F0E94C90D802F90CE802FD3
:103400000E940212812F0E948E0D12CE802F22EF79
:10341000A21609F453C02A1578F030EFA31641F133
:1034200091EFA91609F442C0DD2009F47FC0C11054
:10343000E6CD812F8F713FC0E3EFAE1609F443C094
:10344000F4EFAF12F1CF80917505DD2009F45AC079
:103450000E948405809178058770843009F045C00A
:103460000E948B05812F8F710E948E0D912CE0CDD3
:10347000DD20B9F0C110DCCD1F7161E070E080E0AB
:1034800090E004C0660F771F881F991F1A95D2F726
:1034900000917105109172052091730530917405AA
:1034A000A1CF21E02C1508F4C3CDE6CF812F8F7179
:1034B000DD2009F4A8CF0E94C90DBACD812F8F71EC
:1034C000DD20C9F3A0CFDD2069F01F7161E070E05D
:1034D00080E090E004C0660F771F881F991F1A953F
:1034E000D2F764CF0E94FA0DA3CD34E03C1508F466
:1034F000BDCF1F71812F0E94C90D63E0812F0E94F3
:10350000EA0DB4CF90917B05982B90937B0584E0D6
:103510008C1540F40E948B050E94920564E0812F77
:103520008F71EDCF81E00E94B10DA0CFC1101ECEF2
:10353000812F8F7168CF22EFA216D1F12A1500F1E9
:1035400030EFA31659F181EFA816D1F18091000553
:10355000CC2009F441C0882341F08091010591E01D
:1035600089278093010510920005802FD11048CD46
:103570000E94131286E0F70111928A95E9F758CD5F
:1035800094EFA916C1F0A91688F0E5EFAE12DECFD0
:1035900081E0D1104DCD809301054ACDDD2009F4A5
:1035A00047CD8091010591E08927F5CF81E0D826AC
:1035B000D09201053DCDD1103BCD1092010538CD03
:1035C000DD2039F080910005882359F31092000521
:1035D0002FCDC1102DCDE5CF882309F429CDD110F1
:1035E00027CD8091010591E0892780930105EECFD9
:1035F00085E0DE01119601900D928A95E1F7F701C1
:10360000228189819A8121113CC90E94F705082FE6
:1036100040C90531FCE51F0778F402302CE512079C
:1036200008F068CB01153CE5130709F414C9013013
:103630001C4509F410C95ECB0C3DECE51E0709F4EE
:103640000AC960F406311C4509F054CB8091FD0491
:103650008111B5CC89E20E949805B9CB0D3D3CE5BE
:10366000130709F4F8C80E3D1C4509F4F4C842CB11
:103670001F93CF93DF9380910705807FC1F48091E2
:1036800004058823A1F080913905C0910805609157
:103690000205709103054091050550910605D62F4E
:1036A000D723DA01A095B09516E0C81304C0DF91C6
:1036B000CF911F91089590E04115510511F0DF3F22
:1036C00031F401968770F1CF2A0F3B1F17C0189F66
:1036D000F001199FF00D1124E75FFA4F21812713A4
:1036E000F0CF20812613EDCF22812111EACF238153
:1036F00034812417350740F3241B350B283C310552
:1037000000F7209107052F7020612093070526E020
:10371000289FF001299FF00D1124E25FFA4F80816C
:103720008F708061808382E095E00E940914DF91B0
:10373000CF911F910C944E06BF92CF92DF92EF92E1
:10374000FF920F931F93CF93DF93CDB7DEB76197AF
:103750000FB6F894DEBF0FBECDBF8C0185E0F80137
:10376000DE011D9601900D928A95E1F7D8012C910A
:1037700011963C9111971296EC9012978091050545
:1037800090910605009709F463C14091020550919C
:103790000305642F65236F3F09F45AC11396CD903A
:1037A000DC90B0900405BB2009F413C1C816D906FB
:1037B000C0F1F601E81BF90BCF01FF24F394883C1C
:1037C000910508F0F12C80910705982F907FFF203C
:1037D00009F4C1C091117DC0FE2C531327C04213C0
:1037E00025C0E11023C08F7080618093070582E0BF
:1037F00095E00E94091480910705D80115968C93D5
:103800008F2D61960FB6F894DEBF0FBECDBFDF914E
:10381000CF911F910F91FF90EF90DF90CF90BF90CD
:103820000895809590958C0D9D1DC7CFCD2829F0CA
:10383000822F83238F3F09F035C180E0B82FB1700C
:10384000DB2E80FF3CC0809139054091080556E091
:10385000841315C02D873E878D859E850E9428097B
:10386000292F22952F702230F0F0243018F59F7008
:10387000F1F0F8019581907FD1F4D12C1EC090E039
:10388000589FF001599FF00D1124E75FFA4F6181B5
:10389000361306C06081261303C06281E6120FC092
:1038A00001968770D5CF9F7011F0882331F3805E29
:1038B000883018F3C8010E940914FD2CA1CFEE2016
:1038C00009F49ECF80910705816080930705F12C54
:1038D00097CF531313C0421311C0E1100FC0D8018A
:1038E00015968C93C8010E94091486E0F801A2E0A5
:1038F000B5E001900D928A95E1F782CF2D873E8742
:103900008D859E850E943209882309F1EE20F9F009
:1039100080910705803270F02091020530910305F7
:1039200038872F831986DB86CA868C87CE01079657
:103930000E94091486E0F801A2E0B5E001900D9222
:103940008A95E1F70E94381BFF24F39459CFC801F0
:103950000E940914F9CF91110CC082E095E00E94F9
:10396000091486E0E2E0F5E0DF011D928A95E9F7AF
:1039700047CF531312C0421310C0E1100EC0F8011C
:103980008583C8010E940914E2E0F5E086E0DF01CA
:103990001D928A95E9F7FB2C33CF2D873E878D85C5
:1039A0009E850E943209882391F2EE2081F2809157
:1039B0000705803208F4BECF20910205309103053F
:1039C0003A8329831B82DD82CC828E83CE010196CD
:1039D000AFCFC816D90640F0C81AD90AB8ECCB1632
:1039E000D10448F0F12CBDCF809590958C0D9D1D94
:1039F000883C9105B8F7FE2CEE2009F4A8CF5313AC
:103A000016C0421314C08091070580FD6ECF982F19
:103A1000907F09F46ACFF8018583903F09F462CF63
:103A2000982F907F905F8F70892B85835BCF2D8738
:103A30003E878D859E850E94320981117BCF8091C2
:103A40000705816080930705C8010E940914D8CE3C
:103A5000EE2009F47CCF2D873E878D859E850E94C0
:103A60003209F82E882309F472CF86E0F801A2E02B
:103A7000B5E001900D928A95E1F780910205909151
:103A800003050E94280992959F70963041F4809119
:103A9000010591E0892780930105909300050E941C
:103AA000381BAECE81E08E25C9CE0F931F93CF93E6
:103AB000DF93CDB7DEB767970FB6F894DEBF0FBEC2
:103AC000CDBF6D8B7E8B8F8B8E899F89892BE1F08B
:103AD000842F85238F3F09F0C3C05FEF4FEF14C0E1
:103AE00030910105332309F46AC0E42FF0E036E099
:103AF000539FE00DF11D1124EE0FFF1FE95EFE4FF5
:103B000040815181822B8C931A8A198A4B8B5C8B52
:103B100085E0FE017396DE011D9601900D928A9557
:103B2000E1F70E94660C00917605109177058017E9
:103B3000910708F447C00E94660C801B910B8838DF
:103B4000934120F08091780582FF86C00E94880C06
:103B500081110E94790586E0FE013D96DE011796EF
:103B600001900D928A95E1F7CE0107960E949C1B69
:103B7000811113C086E0FE013796DE011196019097
:103B80000D928A95E1F78A859B85892B31F088858E
:103B90009F8189238F3F09F045C016E08091390548
:103BA0009091080589132CC067960FB6F894DEBF74
:103BB0000FBECDBFDF91CF911F910F9108958095DA
:103BC0008223A1CF0E94660C00951095080F191F43
:103BD0000838134108F0B6CFB9CF96E0929FD001D4
:103BE000939FB00D1124A75FBA4FFE01319601904B
:103BF0000D929A95E1F7809308050E944E06CDCF6D
:103C0000819FC0011124875F9A4F0E949C1B8823CB
:103C100059F28091390590E0019687709927809339
:103C20003905BCCF2091080530E0C90101968770A5
:103C30009927409139054817190679F60E94090E0F
:103C4000109208051092390586E0E2E0F5E0DF0108
:103C50001D928A95E9F7A1CF82E00E94B10D76CF3F
:103C600081E090E0042E01C0880F0A94EAF7A52FA6
:103C7000B0E0A651BE4F2C913D89311131CF322F8A
:103C8000382330CF8F929F92AF92BF92CF92DF9224
:103C9000EF92FF920F931F93CF93DF9380910A01CE
:103CA00090910B01892B91F08091E2018F5F8093BD
:103CB000E20181110BC00E947D0B90E090930B01FB
:103CC00080930A01892B11F40E946E0A0EE815E018
:103CD0007801C0E0D0E037E0C32ECC0E8C2F0E94DC
:103CE000290B8C2D0E94290B8C2F0E94F40BD701DD
:103CF0009D917D01D12C891729F0FD013197808399
:103D0000DD24D3948C2D0E94F40BF7019681891742
:103D100009F463C0868381E08D29D82B0E946B094A
:103D2000CF5FC730C1F60E94660C6AEF70E00E9458
:103D30000B22882E9090E101992009F45AC010922C
:103D4000E101E0918805F09189057F012EE0E20E06
:103D5000F11C40E0CBEF2AEFC22ED12C51915B3FFA
:103D600081F0652F70E0282D392F8517C0F1261BB3
:103D7000370B25303105CCF19F0121503109D90194
:103D8000CC93EE15FF0551F74093E101D11102C02C
:103D9000411131C01092E001A0918805B0918905D0
:103DA0002091E101E1EAF5E090E04191E8013991EB
:103DB0008E01431741F04C914B3FC9F48C93EF01B6
:103DC0002197388321E01196D5E0EF3AFD0769F796
:103DD0002093E1019093E00112C080E09DCFD601D5
:103DE000A61BB70B2A0F3B1FC4CF492DCACF91E0AA
:103DF000EACFD111CFCF9091E0019111CBCF81E0EB
:103E0000DF91CF911F910F91FF90EF90DF90CF90B6
:103E1000BF90AF909F908F900895CDB7DEB72A974F
:103E20000FB6F894DEBF0FBECDBF84B7877F84BFC7
:103E30000FB6F894A8958091600088618093600027
:103E4000109260000FBE80E88093610010926100C4
:103E500085B7806885BF85B7806885BF0E94890265
:103E60000E9454038091E20084608093E200789481
:103E70008091EE058823A1F01091E9001F709091C8
:103E8000EC00892F817090FD80E8182B1092E900DA
:103E90008091E80083FD0E941E0E1F701093E900C0
:103EA00082E084BD93E095BD9AEF97BD80936E004C
:103EB0000E947D0B90E090930B0180930A010E9479
:103EC0006B090E947A09AEE8B5E0E1EAF5E01192EB
:103ED0001D9225E0EF3AF207D1F78EE090E00E94C4
:103EE0007B228093880590938905FC010E962BEF29
:103EF00021938E179F07E1F790E080E00E94412216
:103F00008D3E9E4F11F00E94CB0A8CE090E00E9403
:103F1000392290E0B0E0A0E080938A0590938B0571
:103F2000A0938C05B0938D0589EA8093800089E089
:103F30008093810024982C983F988AB18F7C8AB90D
:103F40006E98479A8BB180638BB9769A0E946E0AFD
:103F500090E080E00E9441228D3E9E4F11F00E9431
:103F6000CB0A82E090E00E9439228093B90584E078
:103F700090E00E94392290E090939D0580939C05EB
:103F800083E090E00E943922682F70E090E080E0AA
:103F90000E94FF0D8CE091E090939F0580939E0519
:103FA000BB24B394AA24AA94EE24E394F12C90E1C8
:103FB000592E22E1622E38E1C32ED12C40E4742E1A
:103FC0008091EE05853009F469C00E94421EAAEB7B
:103FD000B5E0E1EAF5E010E000E0702F61912D918D
:103FE000261709F4A8C090E080E0262730E0982E3C
:103FF000A901082E02C0559547950A94E2F740FFA3
:1040000095C089837A83C70102C0880F991F9A944B
:10401000E2F74C01862F90E08821992121E0892B3D
:1040200009F420E02B830E94660C8160782F9D8329
:104030008C8349815A816B818D810E94551DF801C5
:10404000E654FA4F8081882680828091B60590914F
:10405000B7050E944F059C019091B505992319F071
:104060002431310578F02091B1059090B20510917E
:10407000B3050091B405211174C0892D812B802BCB
:1040800009F0E5C00E9484069091B805891709F4EB
:1040900097CF0E9484068093B80592CF8091EE0559
:1040A000843009F11092A0050FB6F894A895C0923B
:1040B00060000FBE7092600083B7817F846083BF11
:1040C00083B7816083BF7894889583B78E7F83BFE1
:1040D0000FB6F894A8958091600088618093600085
:1040E000109260000FBE8091ED05882309F468CF1F
:1040F0000E947D0B90E090930B0180930A010E9437
:104100006B090E947A09E1EAF5E0119245E0EF3A85
:10411000F407D9F70E94421EE1EAF5E0819181118E
:1041200082C085E0EF3AF807C9F74ACF019686309A
:10413000910509F05CCF0F5F1F4F0E30110509F09C
:104140004CCFAE82AF8218860E94660C8160782FB9
:104150009A8789874E815F8168858A850E94551D6F
:1041600074CF9F3F19F09F5F9093B505121624F40A
:104170000E94C3048093B1058091B10587FF05C0FB
:104180000E94C30481958093B105191424F40E9400
:10419000C3048093B2058091B20587FF05C00E94D9
:1041A000C30481958093B2053091B1053323A1F00A
:1041B0002091B205222381F045EB3403C001112484
:1041C000992359F19093B10545EB240390011124F3
:1041D000332331F13093B205111624F40E94A10467
:1041E0008093B3058091B30587FF05C00E94A104A9
:1041F00081958093B305101624F40E94A104809346
:10420000B4058091B40587FF05C00E94A104819583
:104210008093B4050E94720C35CFB092B105D4CF13
:10422000B092B205D9CF59BC69BC09B400FEFDCF2C
:104230008091D8008F7D8093D8008091E0008260CB
:104240008093E0008091E00081FDFCCFB9CE9F3FDC
:1042500009F089CF9ACF1F921FB61F9211248F9316
:104260009F93AF93BF938091A005811113C080915C
:10427000830590918405A0918505B09186054196AE
:10428000A11DB11D8093830590938405A09385059E
:10429000B0938605BF91AF919F918F911F901FBEE4
:1042A0001F9018951092B9008CE08093B800089583
:1042B000EF92FF920F931F93CF93DF93182FEB0191
:1042C0001092BC0084EA8093BC000E94660C7C01C2
:1042D0008091BC0087FF27C08091B900887F88301B
:1042E00029F08091B900887F8031D9F51093BB0007
:1042F00084E88093BC000E94660C8C018091BC0015
:1043000087FF24C02091B900287F90E080E0283109
:10431000B1F081E090E0203411F490E080E09195DC
:10432000819591090CC0CF3FDC0791F20E94660C89
:104330008E199F098C179D0758F28EEF9FEFDF9122
:10434000CF911F910F91FF90EF900895CF3FDC0721
:10435000A9F20E94660C801B910B8C179D0770F2CE
:10436000ECCF8FEF9FEFEBCF0F931F93CF93DF93A4
:10437000EB018093BB0084E88093BC000E94660C34
:104380008C018091BC0087FF11C02091B900287F6B
:1043900081E090E0283211F490E080E091958195E1
:1043A0009109DF91CF911F910F910895CF3FDC07C5
:1043B00041F30E94660C801B910B8C179D0708F33C
:1043C0008EEF9FEFEECF0F931F93CF93DF93EC0110
:1043D00084E88093BC000E94660C8C018091BC0034
:1043E00087FF08C08091BB0090E0DF91CF911F91C3
:1043F0000F910895CF3FDC0789F30E94660C801B64
:10440000910B8C179D0750F38EEF9FEFEECF84E951
:104410008093BC000895AA1BBB1B51E107C0AA1FD3
:10442000BB1FA617B70710F0A61BB70B881F991F55
:104430005A95A9F780959095BC01CD01089597FBF9
:10444000072E16F4009407D077FD09D00E940B22A6
:1044500007FC05D03EF4909581959F4F0895709587
:1044600061957F4F0895EE0FFF1F0590F491E02DA9
:104470000994F999FECF92BD81BDF89A992780B52C
:104480000895A8E1B0E042E050E00C946D22262FA0
:10449000F999FECF92BD81BDF89A019700B402163A
:1044A00039F01FBA20BD0FB6F894FA9AF99A0FBEE8
:1044B00008950396272F0E9448220E944722252F05
:1044C0000E944822242F0C9448220196272F0E94F4
:1044D00048220C944722DC01CB01FC01F999FECF64
:1044E00006C0F2BDE1BDF89A319600B40D9241507C
:1044F0005040B8F708950F931F93CF93DF93823006
:10450000910510F482E090E0E091FA05F091FB054E
:1045100030E020E0B0E0A0E0309799F421153105BB
:1045200009F447C0281B390B24303105C0F58A81B6
:104530009B816115710571F1FB0193838283FE01FB
:1045400011C0408151810281138148175907F8F049
:104550004817590799F4109761F012960C93129727
:1045600013961C933296CF01DF91CF911F910F913B
:1045700008950093FA051093FB05F4CF211531053A
:1045800019F04217530718F49A01BD01EF01DF013A
:10459000F801C2CF9093FB058093FA05D0CFFE01BE
:1045A000E20FF31F819391932250310939832883BD
:1045B000DACF2091F8053091F905232B41F42091B1
:1045C0000201309103013093F9052093F805209101
:1045D0000001309101012115310541F42DB73EB79D
:1045E0004091040150910501241B350B4091F805C1
:1045F0005091F9054217530708F0B5CF241B350B2E
:104600002817390708F4AFCFBC016E5F7F4F26171C
:10461000370708F4A8CF640F751F7093F9056093EE
:10462000F805FA01819391939ECFCF93DF93009782
:10463000E9F0FC01329713821282C091FA05D09101
:10464000FB05DE0130E020E02097A1F420813181DC
:10465000820F931F2091F8053091F905281739072B
:1046600009F067C0F093F905E093F805DF91CF9169
:104670000895DA01AE17BF0708F040C012964D91B9
:104680005C9113979D014115510599F7D901139636
:10469000FC93EE9312974D915D91A40FB51FEA170D
:1046A000FB0779F4808191810296840F951FD901CF
:1046B00011969C938E938281938113969C938E93F3
:1046C0001297B0E0A0E08A819B810097B9F5FE01C6
:1046D00081919191E80FF91F8091F8059091F9056A
:1046E0008E179F0719F6109761F51092FB0510922F
:1046F000FA05D093F905C093F805B8CFB383A28328
:1047000040815181840F951FA817B90771F44E5F3E
:104710005F4F8D919C911197480F591F5183408392
:1047200012968D919C91938382832115310509F016
:10473000ADCFF093FB05E093FA0598CFDE01EC01D5
:10474000C2CF13961C921E921297D3CFF894FFCF2C
:10475000410941094A094A094C094A094A094A09D1
:104760004109410951094A094A0951096E0D810D52
:10477000860D7F0D840D8B0D890D010F290FCB1038
:10478000290FCB105C0F7D0FCB1086109310E6170E
:10479000E61754185418C518DF189B1A1818211951
:1047A000F719061A061A741796179A179E17A21762
:1047B000A617AA17AE17B217B617BA17BE17C217A1
:0A47C000C617CA17CE17D217D61776
:1047CA000000FC052000F204F80120001F04280A5A
:1047DA00FD09C7098C0901000D010D020D030D0425
:1047EA000D050D000C010C020C030C040C050C0049
:1047FA000B010B020B030B040B050B000A010A0247
:10480A000A030A040A050A0009010902090309043C
:10481A000905090008010802080308040805080038
:10482A000701070207030704070507000601060236
:10483A00060306040605060005010502050305042C
:10484A000505050004010402040304040405040028
:10485A000301030203030304030503000201020226
:10486A00020302040205020001010102010301041C
:10487A000105010000010002000300040005000018
:00000001FF
