:100000000C946A020C9487020C9487020C94870269
:100010000C9487020C9487020C9487020C9487023C
:100020000C9487020C9487020C9427110C94E31013
:100030000C94C6220C9487020C9487020C948702BD
:100040000C9487020C9487020C9487020C9487020C
:100050000C9487020C94420C0C9487020C94870237
:100060000C9487020C9487020C9487020C948702EC
:100070000C9487020C9487020C9487020C948702DC
:100080000C9487020C9487020C9487020C948702CC
:100090000C9487020C9487020C9487020C948702BC
:1000A0000C9487020C9487020C94870229002B0081
:1000B0002A610255000F00001E00140004001D00FC
:1000C000526108551F001A0016001B0051642B00D6
:1000D000200008000700060050682C0021001500D1
:1000E000090019004F000057220017000A00050000
:1000F000000001554C00015400000253000004555B
:100100002A000154000002530000145523001C0073
:100110000B00110000001155240018000D00100004
:100120005200005725000C000E00360051002C0034
:10013000260012000F00370050002800270013008F
:10014000334338004F0029002A0031003400125593
:1001500003580000105001000100010001000000E0
:100160003A002E0057005600010001003B00230218
:1001700025023800010001003C002F0226022F005A
:10018000010001003D0030022702300001000100A3
:100190003E0031023500350200000100010001007F
:1001A000000001000000010001000100000001004A
:1001B000000001003F001E02360224020000010080
:1001C00040001F02370233000100010041002002FD
:1001D0002D023600010001004200210233026300BB
:1001E00001000100430022021250310001001050B2
:1001F00044004500340201000100000010500100DD
:100200002A0001000100000001002E0057002D000F
:1002100052610100010023025500380051640100C1
:1002200001002F0226022F0050682C00010030022E
:10023000270230004F000100010001000100010011
:10024000000001004C00010000000100000001005E
:100250002A0001000000010000000100010001006F
:1002600001000100000001000100240021001E0027
:10027000520001000100250022001F0051002C0047
:100280000100260023002000500028000100270064
:10029000270027004F00105001000100010001005D
:1002A00001000000105001000100010001000000E9
:1002B0000100F900F200FB00010001000100F00064
:1002C000F10001000100F5000100FA00F300FC005C
:1002D0000100F4000100FF00FD00FF00010001002B
:1002E0000100010001000100000001000100010007
:1002F0000000010000000100005C0100000001009E
:1003000000000100010001000100010000000100E7
:100310000100010050000100010001000100520035
:100320005100010001000100AA0001004F0001007E
:1003300001005800A9000100010001000100105057
:100340000100010001000100010000000501090297
:10035000A10185020901A10005091901290515005E
:10036000250195057501810295017503810105013E
:10037000093009311581257F9502750881060938F4
:100380001581257F950175088106050C0A3802152F
:1003900081257F950175088106C0C005010980A1EE
:1003A0000185031601002603001A81002A830075C7
:1003B0001095018100C0050C0901A10185041601F9
:1003C00000269C021A01002A9C02751095018100EA
:1003D000C005010906A1018505050719E029E715F2
:1003E0000025019508750181020508190129059567
:1003F0000575019102950175039101050719002901
:10040000EF1500250195F075018102C0050109066F
:10041000A101050719E029E71500250195087501D7
:1004200081029501750881010508190129059505C5
:10043000750191029501750391010507190029FFC6
:10044000150026FF00950675088100C009023B00D3
:10045000020100A0FA0904000001030101000921C2
:10046000110100012240000705810308000A090468
:100470000100010300000009211101000122C00058
:100480000705820320000A1201100100000008ED98
:10049000FE071301000102030104033000000016EF
:1004A000034500720067006F0044006F0078002071
:1004B0000045005A00000016034500720067006FF7
:1004C0000044006F007800200045005A000000043E
:1004D0000309040011241FBECFEFDAE0DEBFCDBF59
:1004E00011E0A0E0B1E0E0E0FBE402C005900D9275
:1004F000A63DB107D9F726E0A6EDB1E001C01D92F7
:10050000A431B207E1F70E94A8200C9441250C9475
:100510000000E8EDF0E080818E7F80831092E200A1
:100520001092DA001092E100A0EEB0E08C918160B0
:100530008C9380818F77808319BCA7EDB0E08C917C
:100540008E7F8C9380818F7E80831092E105089549
:100550002091E4003091E50095E6A9012091EC009E
:10056000822F817020FF06C08091E80080FF06C0C6
:1005700080E008952091E80022FD1AC080910606CF
:10058000882389F0853089F08091EB0085FD0FC0CC
:100590002091E4003091E50042175307F9F29150A1
:1005A000E1F684E0089582E0089583E0089581E013
:1005B0000895EF92FF920F931F93CF937C018B01CD
:1005C0000E94A802C82F811117C08091E80085FD04
:1005D0000BC08091E8008E778093E8000E94A8020B
:1005E000882399F3C82F08C0F70181917F01809378
:1005F000F1000150110949F78C2FCF911F910F91F4
:10060000FF90EF9008958091080687FF13C08091B6
:10061000E80082FF06C08091E8008B778093E800B5
:1006200004C0809106068111F2CF089580910606DC
:100630008823D9F38091E80080FFF8CF8091E8000B
:100640008E77ECCF982F9093E900242F762F50E0EF
:10065000891731F07091EC002091ED005091F0007D
:1006600021FD07C09F5F973071F78093E90081E01B
:1006700008953091EB003E7F3093EB003091ED0018
:100680003D7F3093ED003091EB0031603093EB0013
:100690007093EC002093ED005093F0002091EE0059
:1006A00027FDE0CF80E00895CF92DF92EF92FF9296
:1006B0000F931F93CF93DF93C8EDD0E088818F7E97
:1006C0008883E7EDF0E080818160808384E082BFF1
:1006D00081E08093E10588818E7F888302EE10E0BF
:1006E000F80110821092DA0081EEC82ED12CF601AA
:1006F000108288818F778883888180688883888149
:100700008F7D888319BC10920606109207061092FE
:1007100005061092040690EEE92EF12CF701808177
:100720008B7F808388818160888342E060E080E005
:100730000E942203F60180818E7F8083F8018081F0
:1007400081608083808188608083F70180818E7FD3
:100750008083888180618883DF91CF911F910F9181
:10076000FF90EF90DF90CF900895FC0180910E06EE
:1007700090910F0686179707A0F06115710529F46F
:100780009091E8009E779093E80090E061157105E4
:1007900051F4911108C08091E80082FF34C080E0DC
:1007A0000895BC01F2CF809106068823C1F18530FF
:1007B000C1F18091E80083FD30C08091E80082FDA6
:1007C000EACF8091E80080FFE1CF8091F300209193
:1007D000F200382F6115710519F02830310558F0F5
:1007E00091E02830310509F090E02091E8002E7763
:1007F0002093E800CBCF81918093F1006150710983
:100800002F5F3F4FE7CF80910606882341F0853068
:1008100041F08091E80083FFBECF81E0089582E03F
:10082000089583E008958091E005811107C08091CB
:100830000606843011F482E0089581E008958091E5
:10084000E30508959091C905803F41F48091CA0560
:1008500087FD1092CA05992371F00895813F29F40C
:100860008091CA051816ACF3F6CF823F81F497FF4A
:10087000F2CF1092C9058091CA059091CB05892BC2
:100880009091CC05892B49F71092CD050895833FAF
:1008900019F4191674F3DFCF893F39F48091CB0531
:1008A0001816CCF61092CB05D6CF8A3F29F480914A
:1008B000CB0587FFD0CFF6CF8B3F39F48091CC05A5
:1008C00087FFC9CF1092CC05C6CF8C3F29F4809109
:1008D000CC051816BCF3BFCF843F31F48091C80516
:1008E0008E7F8093C805B7CF853F21F48091C805DE
:1008F0008D7FF7CF863F21F48091C8058B7FF1CFA4
:10090000873F21F48091C805877FEBCF883F21F492
:100910008091C8058F7EE5CF8D3F31F480919F0592
:100920008E7F80939F0597CF8E3F21F480919F0506
:100930008D7FF7CF8F3F09F08ECF80919F058B7F02
:10094000F0CF80919F0580FD16C081FD16C082FD0D
:1009500016C08091CD058823A1F0883280F428E06C
:10096000829FC001112468E270E00E94BA23862FA2
:10097000672B39F0089582E0089584E0089588E0B7
:10098000089581E0089580919F0580FD16C081FD46
:1009900016C082FD18C08091CD05882391F08C335C
:1009A00090F423E2829FC00111246CE370E00E9466
:1009B000BA23862F672B49F0089588E0089581E1D6
:1009C000089585E0089583E2089581E00895803FC9
:1009D00031F40E94C30481958093CA050895813F34
:1009E00019F40E94C304F8CF823F31F40E94C3047B
:1009F00081958093C9050895833F19F40E94C3042B
:100A0000F8CF893F29F40E94A1048093CB05089573
:100A10008A3F21F40E94A1048195F7CF8B3F31F4E6
:100A20000E94A10481958093CC0508958C3F19F410
:100A30000E94A104F8CF843F31F48091C805816001
:100A40008093C8050895853F21F48091C805826090
:100A5000F7CF863F21F48091C8058460F1CF873FAE
:100A600021F48091C8058860EBCF883F21F4809104
:100A7000C8058061E5CF8D3F31F480919F0581608D
:100A800080939F0508958E3F21F480919F05826099
:100A9000F7CF8F3FB9F780919F058460F1CFCF9258
:100AA000DF92EF92FF920F931F932FB7F89440912C
:100AB0009B0550919C0560919D0570919E052FBFEF
:100AC0006A017B01EE24FF248C0130E020E0C01697
:100AD000D106E206F30650F0481B590BCA011F91DC
:100AE0000F91FF90EF90DF90CF9008954150510902
:100AF000F3CF80919605882331F0109296051092DD
:100B000095051092940508958095909193059823EA
:100B10009093930508951092900510928F0510926E
:100B20008E05089580918D05811110928D0508958F
:100B300090912D019923D1F09091B40597FF16C0A3
:100B4000E82FE695E695E695EE31E0F4F0E0EA521E
:100B5000FE4F282F277081E090E001C0880F2A9572
:100B6000EAF780959281892382830895E8EDF1E088
:100B70009191891303C0DF0111971C9291E0EE3D22
:100B8000F907B1F7089590912D019923C1F0909143
:100B9000B40597FF14C0E82FE695E695E695EE318B
:100BA000F8F4F0E0EA52FE4F877021E030E001C037
:100BB000220F8A95EAF78281822B82830895A8ED1D
:100BC000B1E0EFEF90E02D91821751F0EF3F19F473
:100BD000211101C0E92F9F5F9630A9F7EF3F09F47B
:100BE00008950E2E000CFF0BEA52FE4FE6CFE92FC0
:100BF000EE0FE90FEE0F8E0F982F97708695869562
:100C0000869525E0829FF0011124EE5AFA4F50E0BC
:100C100040E080E0219130E0092E02C03695279512
:100C20000A94E2F721703327042E01C0220F0A94A0
:100C3000EAF7822B4F5F5F4F4530510559F7089512
:100C4000E92FEE0FE90FEE0F8E0F982F977041E00E
:100C500001C0440F9A95EAF786958695869595E0AA
:100C6000899FF0011124EE5AFA4F30E020E070E045
:100C70005191DF011197CB01022E02C09695879505
:100C80000A94E2F7817081958527842385278C93C8
:100C90002F5F3F4F2530310559F708958091510559
:100CA00090912005981301C008958F5F8770FACF47
:100CB00020910105309102052817390771F09093B2
:100CC000020580930105E091B605F091B7053097D4
:100CD00021F00084F185E02D099408952091FF040E
:100CE000309100052817390771F090930005809323
:100CF000FF04E091B605F091B705309721F006802A
:100D0000F781E02D09940895E091B605F091B705BB
:100D1000309721F00190F081E02D099480E0089552
:100D20009091B40592FF06C0282F2871283069F4ED
:100D3000877F846093FF06C0282F2871283161F4D3
:100D4000877E846194FD877E0895282F2471243046
:100D500089F78B7F8860EECF282F2471243191F79B
:100D60008B7E8861EFCFCF93DF93972F70E026E0E3
:100D7000929F600D711D1124FB0134E5839FE00DEE
:100D8000F11D1124EE0FFF1FE455FF4FC591D491C3
:100D9000CE01C238D105B9F108F03EC0C133D1054A
:100DA00009F482C048F5C932D10509F476C0CA32C7
:100DB000D10509F480C0C11540E5D40708F0AFC0E3
:100DC000C11550E4D50708F0AEC1C83ED10508F002
:100DD0008AC0C03ED105E8F4C83AD10508F072C017
:100DE000C53AD10508F0FBC0C130D10591F020977C
:100DF00029F1249770F422C0C533D10509F446C007
:100E0000C933D105C1F62091B405237011F080EEED
:100E100090E0DF91CF910895C33ED10539F188F478
:100E2000C03ED105E1F0C23ED10529F62091B405BE
:100E300022FFEFCF83EE90E024FFEBCF90E080E045
:100E4000E8CFC63ED105C9F0C73ED10509F0B3CF02
:100E50002091B40523FF0EC086EE90E0DACF2091FA
:100E6000B40520FFD6CF89E390E0D3CF2091B4051D
:100E700022FDA9C124FFCDCFE1CF2091B40523FFEE
:100E8000C8CF87EE90E024FDD9CFC3CF2091B40521
:100E900025FFBFCF89E290E0BCCF2091B40525FFAC
:100EA000B8CF85E390E0B5CF2091B40526FFB1CF50
:100EB0008AE290E0AECF2091B40526FFAACF81E36D
:100EC00090E0A7CFCF3BD10508F498C0C03CD10536
:100ED00008F4B4CFCE01880F991F845D9040FC01C7
:100EE0008591949196CFC11520E2D20760F4C11587
:100EF00031E0D30708F08DCFCE019065C03FD1051A
:100F000008F087CF9BCFC11540E3D40708F003C199
:100F1000FE01FF70EE0FFF1FE455FF4FE1CFC1153B
:100F200055E5D50748F5C11584E5D80708F02CC16B
:100F3000C11592E5D90750F4C11521E5D20708F48F
:100F4000F6C09C2F8827816F906A63CF2C2F26953F
:100F50002695AE0143705527C115D34508F005C14C
:100F600081E090E002C0880F991F4A95E2F750E2B5
:100F7000259F90011124F5C0C1154AE5D407A0F4BE
:100F8000C11559E5D50708F00EC1C11586E5D8078A
:100F900008F4FFC0C11598E5D90708F44FCF9C2F7E
:100FA0008827806F906A35CFC1152BE5D20708F4EA
:100FB00045CFCE01C1153CE5D30708F401C19056D9
:100FC0008115904208F03ACF8D2F8F710E949006C4
:100FD00090E0982F882788279F718C2BE2C081E8AA
:100FE00090E4C53AD10509F414CF82E890E4C63AFA
:100FF000D10509F40ECF83E890E40BCF82EE94E4A0
:10100000C83AD10509F405CF89EE94E4C93AD1056F
:1010100009F4FFCE8AEE94E4CA3AD10509F4F9CE78
:1010200085EB94E4CB3AD10509F4F3CE86EB94E456
:10103000CC3AD10509F4EDCE83EB94E4CB3BD1055A
:1010400009F4E7CE84EB94E4CC3BD10509F4E1CE7E
:1010500087EB94E4CD3AD10509F4DBCE8CEC94E433
:10106000C03BD10509F4D5CE8DEC94E4CE3AD10540
:1010700009F4CFCE83E895E4CF3AD10509F4C9CE7F
:101080008AE895E4C13BD10509F4C3CE82E995E431
:10109000C23BD10509F4BDCE84E995E4C33BD1053B
:1010A00009F4B7CE81E296E4C43BD10509F4B1CE90
:1010B00083E296E4C53BD10509F4ABCE84E296E425
:1010C000C63BD10509F4A5CE85E296E4C73BD10520
:1010D00009F49FCE86E296E4C83BD10509F499CE87
:1010E00087E296E4C93BD10509F493CE8FE694E4F8
:1010F000CD3BD10509F48DCE80E794E4CE3BD105FC
:1011000009F487CE80E094E4CA3BD10509F081CE92
:101110008AE296E47ECECE019927D3FF02C0986C76
:1011200078CE906C76CECE019F70906A72CE9E0182
:10113000E4E036952795EA95E1F723708C2F8695A4
:101140008695837050E2859FC0011124AC01522B1B
:101150009A01C37081E090E002C0880F991FCA9580
:10116000E2F7822B932B9C6854CE81E090E002C082
:10117000880F991F4A95E2F740E2249F90011124BD
:10118000822B932B9A6845CE9C2F8827846F906A78
:1011900040CE8C2F0E94900690E0982F88278827B9
:1011A0009F71906236CE8C2F8F700E94900634E033
:1011B000D695C7953A95E1F7CF709C2F906929CEC7
:1011C0009927906626CE82EE90E023CEBF92CF92F2
:1011D000DF92EF92FF920F931F93CF93DF938C01D7
:1011E000C0908905D0908A05E0908B05F0908C0521
:1011F0008091970590919805A0919905B0919A05D5
:10120000C82AD92AEA2AFB2ACFE1D0E0BC2ED7018E
:10121000C6010C2E04C0B695A795979587950A949C
:10122000D2F780FD0EC0219788F7B12C8B2DDF916E
:10123000CF911F910F91FF90EF90DF90CF90BF90D3
:101240000895B8018C2F0E94B306019761F3EECF89
:10125000CF93DF93EC010E94E608BE01DF91CF91AE
:101260000C94B3060E942809292F2F7092959F7025
:1012700092509E3078F4E92FF0E0ED5BFA4D0C943B
:10128000CE23803F19F020F4883E20F481E00895B9
:10129000843FE1F380E00895883EC0F3813FD1F7B9
:1012A000F5CF822F869586958695089527982F9855
:1012B000089526982E98089525982D980895569863
:1012C0005E980895279A2F9A0895269A2E9A08953F
:1012D000259A2D9A089584B1807F84B985B1807F45
:1012E00085B98AB1837F8AB98BB1837F8BB93E98E8
:1012F0004698089580B38C7080BB81B3836F81BBA7
:101300000895CF93DF93EC0180EEFE01099581EE05
:10131000FE01DF91CF9109940F931F93CF93DF9339
:1013200000D00F92CDB7DEB78C010E94130482303B
:1013300011F0843021F584E089831B830A8382E0E5
:101340008093E9008FEF9091E800815095FD06C0F1
:1013500095ED9A95F1F700008111F5CF8091E800A5
:1013600085FF0DC050E040E063E070E0CE010196E3
:101370000E94D9028091E8008E778093E8000F9058
:101380000F900F90DF91CF911F910F910895CF9300
:10139000DF9300D00F92CDB7DEB720910606243040
:1013A00031F523E02983805891099B838A8382E069
:1013B0008093E9008FEF9091E800815095FD06C081
:1013C00095ED9A95F1F700008111F5CF8091E80035
:1013D00085FF0DC050E040E063E070E0CE01019673
:1013E0000E94D9028091E8008E778093E8000F90E8
:1013F0000F900F90DF91CF910895CF93DF93EC0181
:101400000E941304823011F08430F9F482E080935A
:10141000E9008FEF9091E800815095FD06C095EDB1
:101420009A95F1F700008111F5CF8091E80085FFD2
:101430000CC050E040E066E070E0CE010E94D902AE
:101440008091E8008E778093E800DF91CF91089536
:10145000CF93DF93EC010E941304823011F08430AB
:10146000B9F580912D018823B1F18091B40587FFF2
:1014700032C060E282E08093E9008FEF9091E80053
:10148000815095FD06C095ED9A95F1F70000811108
:10149000F5CF8091E80085FF1BC080912D0170E0A1
:1014A00050E040E0811104C050E040E068E070E0AE
:1014B000CE010E94D9028091E8008E778093E800E7
:1014C00080E2FE01A4EEB5E001900D928A95E1F76D
:1014D000DF91CF91089568E081E0CDCF0E945F0950
:1014E0000E945C090E9459090E9456098FEF90E002
:1014F000909389008093880090938B0080938A005A
:1015000090938D0080938C000E9468092FEF80E7F4
:1015100092E0215080409040E1F700C000000E941E
:1015200065092FEF80E792E0215080409040E1F77D
:1015300000C000000E9462092FEF80E792E0215076
:1015400080409040E1F700C000000E945C092FEF4E
:1015500080E792E0215080409040E1F700C0000019
:101560000E9459092FEF80E792E02150804090407F
:10157000E1F700C000000E9456090E945F090E9426
:101580005C090E9459090C9456096091A2058CE0EF
:1015900090E00C94E2236DEE7EEF90E080E00E94FC
:1015A000002460E082E090E00E94E22360E083E0BB
:1015B00090E00E94E22310929705109298051092F5
:1015C000990510929A0560E084E090E00E94E22381
:1015D00060E085E090E00E94E22360E086E090E039
:1015E0000E94E2236FEF87E090E00E94E22340E058
:1015F00050E0BA0188E090E00E94F42360E08DE0C2
:1016000090E00E94E22340E050E0BA0188E190E0DF
:101610000E94F42360E087E190E00E94E22340E032
:1016200050E0BA018CE190E00E94F42360E080E297
:1016300090E00E94E22340E050E0BA018FE090E0A9
:101640000E94F42340E050E0BA0183E190E00C9462
:10165000F423CF93C82F873070F5809121019091AA
:101660002201892B89F564E670E080E40E94F32270
:101670009093220180932101892BD1F464E670E0DC
:1016800082E10E944F239093220180932101892BB4
:1016900079F481E090E001C0880FCA95EAF764E62A
:1016A00070E080950E944F23909322018093210146
:1016B000CF910C94A2238A30B9F040F4883071F0B5
:1016C000893079F0209A2898CF9108958C3091F044
:1016D00070F08D30B9F73E9A4698F6CF219A299846
:1016E000F3CF229A2A98F0CF239A2B98EDCF529AD3
:1016F0005A98EACF539A5B98E7CF80E290E09093B4
:101700002201809321018091F90181110EC00E9474
:10171000ED2281E08093F9012FEF83ED90E32150DA
:1017200080409040E1F700C0000064E670E080E493
:101730000E94F3229093220180932101892B09F0CA
:101740004EC064E670E080E00E944F239093220137
:1017500080932101892B09F042C064E670E080E0AB
:101760000E944F239093220180932101892BB9F588
:1017700064E670E08FE30E944F23909322018093F0
:101780002101892B61F50E94A22364E670E080E4C8
:101790000E94F3229093220180932101892BF9F476
:1017A00064E670E08CE00E944F23909322018093C6
:1017B0002101892BA1F464E670E080E00E944F23B0
:1017C0009093220180932101892B49F464E670E013
:1017D0008FE30E944F2390932201809321010E9466
:1017E000A223809121010895CF93873008F040C053
:1017F0008091210190912201C0E0892B71F464E66F
:1018000070E080E40E94F3229093220180932101F2
:10181000892B31F0C0E00E94A2238C2FCF91089534
:1018200064E670E083E10E944F239093220180934D
:101830002101892B79F764E670E081E40E94F322AC
:101840009093220180932101892B21F784E690E077
:101850000E947E2397FF05C090932201809321016F
:10186000D9CFC82FC0951092220110922101D3CF59
:10187000CFB18FB1869586958C73C3708C2BC82F92
:10188000C095CBCF78941F921FB61F9211248F93CF
:101890009F93AF93BF9380919B0590919C05A091DE
:1018A0009D05B0919E050196A11DB11D80939B05DC
:1018B00090939C05A0939D05B0939E05BF91AF9119
:1018C0009F918F911F901FBE1F9018952FB7F8946E
:1018D00080919B0590919C05A0919D05B0919E05DE
:1018E0002FBF0895E091B605F091B705309749F004
:1018F00082E08093C7050480F581E02D87EC95E0B8
:1019000009950E94660C9093CF058093CE050895AB
:10191000CF93DF930E94660CC0919405D0919505FA
:101920008C179D0758F00E94660C9C012C1B3D0BE8
:1019300081E02838334160F480E00AC00E94660CE0
:10194000C095D095C80FD91F81E0C838D341A0F306
:10195000DF91CF9108958091930590919205892B05
:1019600090919105892B8093D601809196058823CB
:10197000E9F00E94880C81110E9479058091D601BE
:1019800090919605892B8093D60180912D01882313
:1019900041F18091B40587FF24C08EE1E8EDF1E0CC
:1019A00090E0815000F591110E947905E091B60513
:1019B000F091B7053097E1F080912D01882359F01F
:1019C0008091B40587FF07C08091D6018093D7012D
:1019D00085E08093D6010280F381E02D86ED91E0D1
:1019E000099486E0DBCF21912223D9F29F5FD9CFE2
:1019F000089510929205109291050E94AB0C86E01A
:101A0000E7ECF5E0DF011D928A95E9F71092CD052C
:101A100010929F050E94720C90E080E00E946E067A
:101A200090E080E00C945806CF92DF92EF92FF9204
:101A3000CF936B017C01C701AA27BB27C0E10097A8
:101A4000A105B10519F4D701CB01C0E0492F5A2FE8
:101A50006B2F7727411551056105710519F0C85F96
:101A6000DB01CA01AC01BD01E4E0769567955795AD
:101A70004795EA95D1F7411551056105710519F0B2
:101A8000CC5FDB01CA01AC01BD0132E07695679500
:101A9000579547953A95D1F741155105610571055F
:101AA00019F0CE5FDB01CA01B695A795979587958A
:101AB000892B8A2B8B2B09F0CF5F0E945F090E9434
:101AC0005C090E9459090E945609C150C73040F470
:101AD000EC2FF0E0EF5AFA4D0C94CE230E946809E7
:101AE000C0928905D0928A05E0928B05F0928C0510
:101AF000CF91FF90EF90DF90CF900C94F90C0E9463
:101B000068090E946509ECCF0E9468090E94620979
:101B1000E7CF0E9468090E946509F8CF0F931F93D1
:101B200041E050E060E070E004C0440F551F661FC4
:101B3000771F8A95D2F7CB01BA0160957095809591
:101B400090950091890510918A0520918B0530911F
:101B50008C0560237123822393231F910F910C9492
:101B6000140D909190058095892380939005282FDE
:101B7000277071F4282F082E000C330B92171306D0
:101B800039F08595859585950E948E0D0C948B0571
:101B900008950F931F9341E050E060E070E004C0AF
:101BA000440F551F661F771F8A95D2F780918905CC
:101BB00090918A05A0918B05B0918C058A019B01BB
:101BC000082B192B2A2B3B2BC901B8011F910F9110
:101BD0000C94140D98E0899F90011124622B60935E
:101BE00090050E94C90D0E94660C90938F0580930A
:101BF0008E05089560E070E0CB010C94140D6093A5
:101C00009705709398058093990590939A050C9485
:101C1000F90C1092930580912D01E8EDF1E08823F5
:101C200059F08091B40587FF07C08EE1DF011D9256
:101C30008A95E9F70C94F90C86E0F8CF1F93CF93BF
:101C4000DF93CDB7DEB7AA970FB6F894DEBF0FBE0D
:101C5000CDBF88E096E02091F100FC012193CF01F7
:101C6000F6E080319F07B9F780910906833009F4C7
:101C70006FC0B8F4813009F446C0823009F4B0C0B6
:101C80008091E80083FF87C2809108069091090641
:101C90009A3008F080C2E92FF0E0E85AFA4D0C942F
:101CA000CE238A3009F48BC08B3009F46EC08930A2
:101CB00039F780910806813219F780910C069091CE
:101CC0000D060297E8F68091E800877F8093E80090
:101CD0008091E80082FF37C09091F3008091F2007C
:101CE000029729F48091F1008B7F813021F480915B
:101CF000F1008093E3058091E8008B778093E80002
:101D00000E940303BDCF80910806813A09F0B8CF45
:101D10008091E800877F8093E80080910C06909185
:101D20000D06892B61F460E284EE95E070E00E947C
:101D3000B5038091E8008B778093E800A1CF60E045
:101D400090E080E0F3CF809106068111C1CF98CF5B
:101D500080910806813A09F093CF80910C0690910A
:101D60000D06892B09F08CCF8091E800877F809346
:101D7000E8008091E80080FFFCCF80912D018093E6
:101D8000F1008091E8008E77B9CF8091080681320A
:101D900009F076CF80910C0690910D06892B09F001
:101DA0006FCF8091E800877F8093E8000E94030353
:101DB00080910A0680932D010E94090E61CF8091C7
:101DC0000806813209F05CCF8091E800877F80931C
:101DD000E8000E94030380910B068093E20550CF38
:101DE00080910806813A09F04BCF8091E800877F07
:101DF0008093E8008091E80080FFFCCF8091E205AD
:101E0000BECF803899F0823809F0C5C180910C06A8
:101E10008F70873008F0BFC18093E9008091EB009C
:101E200085FB882780F91092E90006C0809104069E
:101E300090910506911182609091E800977F9093B0
:101E4000E8008093F1001092F1008091E8008E7715
:101E50009EC1882309F48CC1823009F09CC1809115
:101E60000A0681118FC180910C068F702FEF280F09
:101E7000263008F090C18093E9002091EB0020FF0C
:101E800081C1933031F48091EB0080628093EB004C
:101E900079C19091EB0090619093EB0021E030E0EC
:101EA00001C0220F8A95EAF72093EA001092EA0017
:101EB0008091EB008860EACF81116DC110910A0614
:101EC0001F778091E3008078812B8093E3008091DD
:101ED000E800877F8093E8000E9403038091E80078
:101EE00080FFFCCF8091E30080688093E30082E074
:101EF000111183E0809306064EC18058823008F0AD
:101F00004AC180910A0690910B068C3D23E092070E
:101F1000A1F583E08A838AE289834FB7F894DE01D2
:101F2000139620E03EE051E2E32FF0E0509357009B
:101F3000E49120FF03C0E295EF703F5FEF708E2FBA
:101F400090E0EA30C0F0C7968D939D932F5F2431C7
:101F500059F74FBF8091E800877F8093E8006AE2DD
:101F600070E0CE0101960E94B5038091E8008B7766
:101F70008093E80010C1C096E7CF40910C065091C5
:101F80000D06292F33272330310509F445C078F594
:101F90002130310509F47BC08BE390E0ECE4F4E000
:101FA0002230310509F0F7C02091E800277F209307
:101FB000E80020910E0630910F068217930708F46F
:101FC0009C0140E02115310509F070C041116EC03F
:101FD0008091E80082FDC9CF80910606882329F20E
:101FE000853019F28091E80083FFF2CFBECF213215
:101FF000310509F440C02232310509F0CCC0411549
:10200000510509F44EC04130510509F0C4C080ECBF
:1020100090E0ECE4F3E0C8CF992781309105D9F046
:10202000009771F082309105F1F0039709F0B3C089
:10203000E9E9F4E0E4918E2F90E0E9E9F4E007C0EB
:10204000EFECF4E0E4918E2F90E0EFECF4E00097F9
:1020500009F4A1C0A9CFE7EBF4E0E4918E2F90E062
:10206000E7EBF4E0F4CFEFE9F4E0E4918E2F90E0B9
:10207000EFE9F4E0ECCF4115510571F04130510525
:1020800009F089C089E090E0E7E7F4E08DCF82E1D4
:1020900090E0E7E8F4E088CF89E090E0EEE5F4E056
:1020A00083CF80E490E0ECE0F4E07ECF8091060600
:1020B000882309F45ACF853009F457CF8091E8007E
:1020C00083FD53CF8091E80082FD82CF8091E800AC
:1020D00080FF78CF9091F3008091F20021153105B7
:1020E00019F08830910550F041E0089709F040E080
:1020F0008091E8008E778093E80064CF449140930C
:10210000F1003196215031090196E8CF803809F06D
:1021100042C08091E800877F8093E80080910706A5
:102120008093F10092CE811136C010910A061230D0
:1021300090F58091E800877F8093E8001093070670
:102140000E940303112311F084E005C08091E30095
:1021500087FDFACF81E08093060642E061EC81E0E2
:102160000E94220342E261EC82E00E94220313C03B
:1021700080910A06813079F481E0933009F080E0A3
:10218000809305061092E9008091E800877F809394
:10219000E8000E9403038091E80083FF0AC0809159
:1021A000E800877F8093E8008091EB008062809355
:1021B000EB00AA960FB6F894DEBF0FBECDBFDF913D
:1021C000CF911F9108951F920F920FB60F92112475
:1021D0002F933F934F935F936F937F938F939F932F
:1021E000AF93BF93CF93DF93EF93FF93D091E90029
:1021F000DF708091EC00C82FC17080FDC0E81092A4
:10220000E9008091F000877F8093F00078940E942D
:102210001E0E1092E9008091F00088608093F0001B
:10222000CD2BCF70C093E900FF91EF91DF91CF915B
:10223000BF91AF919F918F917F916F915F914F91DE
:102240003F912F910F900FBE0F901F9018951F92E6
:102250000F920FB60F9211242F933F934F935F93DA
:102260006F937F938F939F93AF93BF93EF93FF935E
:102270008091E10082FF09C08091E20082FF05C0E9
:102280008091E1008B7F8093E1008091DA0080FFF4
:1022900024C08091D80080FF20C08091DA008E7F1A
:1022A0008093DA008091D90080FF9FC080E189BDD2
:1022B00082E189BD09B400FEFDCF81E0809306066E
:1022C0008091E105811109C00E9489020E94540396
:1022D0008091E20084608093E2008091E10080FFC1
:1022E00017C08091E20080FF13C08091E2008E7FD2
:1022F0008093E2008091E20080618093E20080910F
:10230000D80080628093D80019BC85E080930606CF
:102310008091E10084FF2DC08091E20084FF29C0FC
:1023200080E189BD82E189BD89B5982F917080FFD8
:10233000FBCF8091D8008F7D8093D8008091E10001
:102340008F7E8093E1008091E2008F7E8093E20097
:102350008091E20081608093E200809107068823EB
:1023600009F449C084E0809306060E94090E0E9489
:1023700084068091E10083FF27C08091E20083FF03
:1023800023C08091E100877F8093E10082E0809309
:102390000606109207068091E1008E7F8093E1008F
:1023A0008091E2008E7F8093E2008091E200806164
:1023B0008093E20042E060E080E00E94220380918E
:1023C000F00088608093F000FF91EF91BF91AF9192
:1023D0009F918F917F916F915F914F913F912F913D
:1023E0000F900FBE0F901F90189519BC1092060603
:1023F0001092E10572CF8091E30087FD93E0909306
:102400000606B3CF882321F00E9484050C94AB0C00
:102410000895882339F090919305982B9093930514
:102420000C94AB0C0895882309F452C0823871F4DF
:102430000E94840681FF4CC089E30E94C3050E946C
:10244000AB0C89E30E9498050C94AB0C833859F4CB
:102450000E94840680FF3CC083E50E94C3050E9461
:10246000AB0C83E5EFCF843859F40E94840682FFD9
:102470002FC087E40E94C3050E94AB0C87E4E2CF23
:102480009CEF980F913AF0F290E2980F983050F448
:10249000877091E001C0990F8A95EAF7892F0E9411
:1024A0008405D2CF9BE5980F933020F490E080E034
:1024B0000C946E0698E5980F973120F490E080E038
:1024C0000C945806803F20F00E9422040C94720C59
:1024D0000895882309F408C18238B9F40E9484065B
:1024E00081FD02C189E30E94C3050E94AB0C2FEF5E
:1024F00081EE94E0215080409040E1F700C0000060
:1025000089E30E9498050C94AB0C8338A1F40E94D7
:10251000840680FDE9C083E50E94C3050E94AB0CE0
:102520002FEF81EE94E0215080409040E1F700C011
:10253000000083E5E6CF8438A1F40E94840682FD82
:10254000D3C087E40E94C3050E94AB0C2FEF81EE3D
:1025500094E0215080409040E1F700C0000087E403
:10256000D0CF9CEF980F913A18F40E94C305CBCFBF
:1025700090E2980F983068F4877021E030E001C055
:10258000220F8A95EAF780919305822B8093930519
:10259000BACF9BE5980F933070F4853A31F0863AC4
:1025A00039F083E890E00C946E0681E890E0FBCF70
:1025B00082E890E0F8CF98E5980F973108F08EC048
:1025C000883A09F446C0893A09F446C08A3A09F4BF
:1025D00046C08B3A09F446C08C3A09F446C08B3B9E
:1025E00009F446C08C3B09F446C08D3A09F446C054
:1025F000803B09F446C08E3A09F446C08F3A09F48C
:1026000046C0813B09F446C0823B09F446C0833B87
:1026100009F446C0843B09F446C0853B09F446C032
:10262000863B09F446C0873B09F446C0883B09F461
:1026300046C0893B09F446C08D3B09F446C08E3B39
:1026400009F446C08A3B09F446C090E080E00C944F
:10265000580682EE90E0FBCF89EE90E0F8CF8AEE4C
:1026600090E0F5CF85EB90E0F2CF86EB90E0EFCFF6
:1026700083EB90E0ECCF84EB90E0E9CF87EB90E048
:10268000E6CF8CEC90E0E3CF8DEC90E0E0CF83E8F8
:1026900091E0DDCF8AE891E0DACF82E991E0D7CF0F
:1026A00084E991E0D4CF81E292E0D1CF83E292E05D
:1026B000CECF84E292E0CBCF85E292E0C8CF86E233
:1026C00092E0C5CF87E292E0C2CF8FE690E0BFCF25
:1026D00080E790E0BCCF8AE292E0B9CF803F20F063
:1026E0000E94E7040C94720C0895CF93C82F0E94A7
:1026F0006912C93349F42FEF87EE93E021508040EF
:102700009040E1F700C000008C2FCF910C94131281
:10271000877021E030E001C0220F8A95EAF78091AE
:102720009205822B809392050C94AB0C877021E06C
:1027300030E001C0220F8A95EAF72095809192053A
:102740002823209392050C94AB0CCF93DF93EC01DC
:1027500081E0898B809193059F81892B80939305DC
:10276000809192059885892B809392050E94AB0CED
:10277000EA81FB81309739F06C897D89CE0106961C
:10278000DF91CF910994DF91CF910895EF92FF925D
:102790000F931F93CF93DF93EC018A85811139C08A
:1027A000EB80FC8087E5F81A26E12E9DC0012F9D65
:1027B000900D1124DC01A65FBE4F1496ED91FC91A3
:1027C0001597309731F054966D917C91805F9E4FB4
:1027D000099586E18E9D80018F9D100D1124065F65
:1027E0001E4FF80187810E948405F8018085982F8B
:1027F0009095809192058923809392050E94AB0C5D
:10280000188219861B861E821D8210921205109254
:102810001105DF91CF911F910F91FF90EF900895D7
:102820000F931F93CF93DF93C62FD42F022FFC015A
:1028300082818823A1F0609314050E94660C909316
:10284000FE048093FD04C77081E001C0880FCA9523
:10285000EAF7DF91CF911F910F910C94091210911B
:102860001405161335C08091FD049091FE040E945A
:102870004F05883C910560F5C0E2CD0F1D17B9F0FA
:1028800080E2810F883040F4177081E001C0880F2A
:102890001A95EAF70E940212C83048F481E09D2F91
:1028A000977001C0880F9A95EAF70E940912802F4D
:1028B0000E947513C83098F4D77081E001C0880F6A
:1028C000DA95EAF7DF91CF911F910F910C940212E4
:1028D000C77081E001C0880FCA95EAF7F3CFDF9196
:1028E000CF911F910F9108954F925F926F927F92B7
:1028F0008F929F92AF92BF92CF92DF92EF92FF9210
:102900000F931F93CF93DF9300D000D00F92CDB7DA
:10291000DEB76C01DC0113968D919C911497892B85
:1029200041F01C911196FC90812F8F218F3F09F06F
:1029300077C60F900F900F900F900F90DF91CF916F
:102940001F910F91FF90EF90DF90CF90BF90AF90CD
:102950009F908F907F906F905F904F9008950E940E
:10296000E608082F682F89819A810E942006E12FAE
:10297000F0E0B6E0FB9EE00DF11D112424E5029F7E
:10298000E00DF11D1124EE0FFF1FE455FF4F0591DF
:102990001491D60112968C9181111EC1B601C80105
:1029A0000E945B1E882309F4C4CFC80197558F3F4E
:1029B000910511F008F047C020912001022E000C73
:1029C000330B2817390714F480932001D60112968F
:1029D0002C91129736E1389F5001399FB00C112489
:1029E000F501E65FFE4F7F01208B12969C91868158
:1029F000992309F431C1128701878F5F86830E9472
:102A0000660CD7011E969C938E931D978091960518
:102A100017968C9317978091920590919305892B27
:102A200018968C931897ED91FC911197309739F087
:102A300054966D917C91C501805F9E4F09951093CE
:102A4000120500931105D60112968C91882391F0FE
:102A5000033EBCE51B0709F41CC108F00AC1013E96
:102A6000FCE51F0709F410C181E0023E2CE51207C6
:102A700009F410C117FF3EC1D60112968C9188232C
:102A800009F44DC08091930580931305109293052E
:102A90008091A205813009F406C1882309F4FFC0A2
:102AA000823009F40FC1843009F413C1EFE3FCE96B
:102AB0003197F1F700C000005801E894B7F84CE0F6
:102AC000E42EF12C95010E2C02C0369527950A9420
:102AD000E2F72F7087E290E031F0822F90E02A3009
:102AE00008F0FCC04D960E947513F4E0EF1AF1084F
:102AF0002CEFE2162FEFF20629F78091A205813024
:102B000009F4F2C0882309F4EBC0823009F4E8C06C
:102B1000843009F4EDC08091130580939305D601AC
:102B200012968C91882309F48DC5109214050531F5
:102B3000BCE51B0708F02CC10230ECE51E0708F0CD
:102B4000C2C10115FCE51F0709F470C101301C4525
:102B500009F4A9C1F60100811181882309F43FC25B
:102B6000C8010E94E608F82E682FC8010E942006BE
:102B7000B8018F2D0E94B3068C01A82ED6011596A0
:102B8000EC901597E2943FE0E3221296FC90F1104E
:102B90001092920580919005877079F0FF2069F07E
:102BA00080E2800F883048F082E00E94B10D809171
:102BB00090058770992493948111912C812E829491
:102BC0002FE08222BBE0B81508F440C2E82DF0E007
:102BD000EE59FA4D0C94CE23809120018F3F09F4D9
:102BE000DDCE5AE0E52E51E0F52EB12CA12C992432
:102BF000939480912001082E000C990B8A159B0557
:102C00000CF4CCCEF70186818823F9F0818592857A
:102C10008017910739F48091110590911205801762
:102C2000910799F0D7011F969C921F971C961C93B1
:102C30000E931B9751968C91811103C0C7010E947E
:102C4000A513C70106960E94C613BFEFAB1ABB0AB5
:102C5000E6E1EE0EF11CCDCF882309F4F4CE818994
:102C6000882309F4F0CEC501805F9E4F0E94C613F1
:102C7000EACE043E3CE5130781F0053E8CE51807DB
:102C800009F0F8CE84E006C01092A2050E94C50AA1
:102C9000F1CE82E08093A205F9CF83E0FBCF82EEF4
:102CA0000E94691203CF88E893E10E94810988E1BC
:102CB0000E94691288E10E94131286E993E10E9442
:102CC0008109F4CE82EE0E94691287E50E94751395
:102CD000EDCE86EE0E94751388E1F8CF069703CFFC
:102CE00082EE0E94131217CF8CE20E94751313CF4D
:102CF00088E2FBCF003F3CE51307D9F140F5083DE2
:102D00009CE5190791F1093DACE51A07F1F1073D82
:102D1000BCE51B0709F003CF26E241EE61EEC601D8
:102D20000F900F900F900F900F90DF91CF911F9108
:102D30000F91FF90EF90DF90CF90BF90AF909F905A
:102D40008F907F906F905F904F900C941014023F83
:102D5000ECE51E07B1F088F0033F2CE5120709F0FF
:102D6000DECE27E245EE66EEDACF27E245EE65EEEF
:102D7000D6CF26E241EE60EED2CF27E245EE64EEFA
:102D8000CECF26E241EE62EECACF28E241E0EFCF9D
:102D90000C3D3CE5130709F48FC040F506311C4596
:102DA00009F0D8CE809193058A7A91E009F490E0F9
:102DB0009093150581110FC189E20E94C3050F9000
:102DC0000F900F900F900F90DF91CF911F910F9167
:102DD000FF90EF90DF90CF90BF90AF909F908F903B
:102DE0007F906F905F904F900C94AB0C0D3DBCE5C5
:102DF0001B0709F464C00E3D1C4509F0ABCE0F90D3
:102E00000F900F900F900F90DF91CF911F910F9126
:102E1000FF90EF90DF90CF90BF90AF909F908F90FA
:102E20007F906F905F904F900C94CB0A0E94090E98
:102E3000FFEF24E33CE0F15020403040E1F700C0D8
:102E40000000F89481E08093E00080E28093D80055
:102E50001092C9008FE19EE40197F1F700C00000D5
:102E60001DBA109268001CBC10BE1FBA10927A00E6
:102E700010926E0010926F0010927100109272000A
:102E80001092C9001092BC0014B817B81AB81DB837
:102E900010BA1092BC0015B818B81BB81EB811BAF9
:102EA0000C94003F46CD9091D105892F8E7F90FFE5
:102EB00081608093D1053DCD1092E0053ACD82E04E
:102EC0008093E00536CD90E080E00E94DC238D3ECB
:102ED0009E4F11F00E94CB0A84E090E00E94D42320
:102EE00090E09093B5058093B405F801E350FC455C
:102EF0008091B4058160E231F10538F4E259FA4D70
:102F00000C94CE238091B40582608093B4056091C7
:102F1000B40584E090E00E94E2230F900F900F90A0
:102F20000F900F90DF91CF911F910F91FF90EF9035
:102F3000DF90CF90BF90AF909F908F907F906F90D9
:102F40005F904F900C94090E8091B4058460DDCFA2
:102F50008091B4058860D9CF8091B4058061D5CFC8
:102F60008091B4058062D1CF8091B4058064CDCFCB
:102F70008091B4058068C9CF8091B4058C60C5CFBD
:102F80008091B4058E7FC1CF8091B4058D7FBDCF78
:102F90008091B4058B7FB9CF8091B405877FB5CF81
:102FA0008091B4058F7EB1CF8091B4058F7DADCF78
:102FB0008091B4058F7BA9CF8091B4058F77A5CF81
:102FC0008091B405837FA1CF9091B405892F97FBA1
:102FD00087F980589ACF85E3F0CE85E355C3C801C1
:102FE0000E94F705F82EC4CDE12FEF70EE2E107F72
:102FF00019F0E29490EFE922FF20C9F0EE2069F089
:1030000080E2800F883010F0A1100BC080919305F2
:10301000E82AE09293050E94AB0C802F0E9469126F
:1030200015C080919205E82AE0929205F4CF802F96
:103030000E941312EE2051F0005E083010F0A11033
:103040003AC08E2D0E9484050E94AB0CE82DE850FA
:10305000FF0B349710F40E948406992009F469CC80
:103060008091900580FD65CCD60112961C928595C5
:10307000859585950E94C90DC6010E9474148091A2
:1030800090058595859585950F900F900F900F90E1
:103090000F90DF91CF911F910F91FF90EF90DF90F4
:1030A000CF90BF90AF909F908F907F906F905F90E8
:1030B0004F900C948E0DE09480919205E822E0925E
:1030C0009205C2CFF12FFF70BF2E107F103219F082
:1030D000B29480EFB822AA2051F021E0A21609F4A0
:1030E00046C0FF2009F44DC0EE2029F196CFFF2005
:1030F00031F1E11004C0809196058B291DC031E0AB
:10310000E3120FC080919605B82AB81609F49ECF35
:103110000E94660C9093950580939405B092960555
:1031200095CF85E0E812E7CF0E94790580918D0563
:10313000B812B0928D058B2D0E94091287CFE11035
:1031400006C00E9479058B2D0E9402127FCF91E06C
:10315000E91208C0809193058B2109F477CF0E9472
:103160009205EFCFA5E0EA1609F470CFEACFFF2071
:1031700029F0B1E0BE1508F469CFDDCFE11066CFCC
:10318000E2CFEE2001F3093349F4EFEFF7EE23E04D
:10319000E150F0402040E1F700C00000802F0E9485
:1031A000131254CF812F86958695837061F08130FC
:1031B00009F04CCFC8019370F11002C090E080E09C
:1031C0000E94580643CFC8019370F11002C090E0EE
:1031D00080E00E946E063ACFFF2009F1053F99F08A
:1031E000063FB9F0043F49F4809116059091170508
:1031F00081609093170580931605802F0E94E70445
:103200000E94720C23CF8091160590911705826061
:10321000F0CF80911605909117058460EACF053FA5
:1032200089F0063FA9F0043F49F48091160590917A
:1032300017058E7F9093170580931605802F0E94A7
:103240002204DECF80911605909117058D7FF2CF75
:1032500080911605909117058B7FECCF812F83709D
:1032600009F066C0F110F2CE802F829586958770A6
:10327000880F880F602F6F70462E512C712C612C97
:10328000082E04C0440C551C661C771C0A94D2F707
:1032900040E050E0BA0104FF0FC04FE050E060E0B2
:1032A00070E004C0440F551F661F771F8A95D2F740
:1032B0004095509560957095812F86958695837081
:1032C000823019F1D8F4009197051091980520915A
:1032D000990530919A05813069F04429552966296C
:1032E0007729CB01BA0160237123822393230E94A3
:1032F000FF0DACCE402A512A622A732ACB01BA01B3
:103300006429752986299729F2CF442955296629E8
:103310007729009197051091980520919905309192
:103320009A05CB01BA016027712782279327DFCF47
:103330008695FF2011F0812F8170882309F486CEB5
:10334000802F829586958770880F880F602F6F7009
:10335000462E512C712C612C082E04C0440C551C97
:10336000661C771C0A94D2F740E050E0BA0104FFD3
:103370000FC04FE050E060E070E004C0440F551F04
:10338000661F771F8A95D2F7409550956095709586
:10339000812F869586958370823019F1D8F400913B
:1033A000890510918A0520918B0530918C0581301B
:1033B00069F04429552966297729CB01BA01602390
:1033C0007123822393230E94140D40CE402A512A58
:1033D000622A732ACB01BA016429752986299729A3
:1033E000F2CF442955296629772900918905109142
:1033F0008A0520918B0530918C05CB01BA0160279D
:10340000712782279327DFCF1F70FF2029F0812F9C
:103410000E94C90D802F90CE802F0E940212812F12
:103420000E948E0D13CE802F32EFA31609F453C0E5
:103430003A1578F090EFA91641F1A1EFAA1609F418
:1034400042C0FF2009F47FC0E110E7CD812F8F71CA
:103450003FC0B3EFAB1609F443C0E4EFAE12F1CFB7
:1034600080918D05FF2009F45AC00E948405809147
:1034700090058770843009F045C00E948B05812F2C
:103480008F710E948E0D912CE1CDFF20B9F0E110DB
:10349000DDCD1F7161E070E080E090E004C0660F58
:1034A000771F881F991F1A95D2F7009189051091EF
:1034B0008A0520918B0530918C05A1CFF1E0FE1596
:1034C00008F4C4CDE6CF812F8F71FF2009F4A8CF77
:1034D0000E94C90DBBCD812F8F71FF20C9F3A0CFF2
:1034E000FF2069F01F7161E070E080E090E004C0AF
:1034F000660F771F881F991F1A95D2F764CF0E9415
:10350000FA0DA4CD24E02E1508F4BDCF1F71812F34
:103510000E94C90D63E0812F0E94EA0DB4CF909103
:103520009305982B9093930534E03E1540F40E9448
:103530008B050E94920564E0812F8F71EDCF81E0B1
:103540000E94B10DA0CFEE2059F0893309F026CEAC
:103550008FEF97EEA3E081509040A040E1F71CCEA2
:10356000812F8F715DCFB2EFAB16D1F1BA1500F19B
:10357000E0EFAE1659F1F1EFAF16D1F180911805D9
:10358000EE2009F441C0882341F08091190591E0B3
:1035900089278093190510921805802FF1103ECDD0
:1035A0000E94131286E0D6011D928A95E9F74ECD4E
:1035B00024EFA216C1F0A21688F035EFA312DECFD9
:1035C00081E0F11043CD8093190540CDFF2009F42F
:1035D0003DCD8091190591E08927F5CF81E0F8264E
:1035E000F092190533CDF11031CD109219052ECD81
:1035F000FF2039F080911805882359F3109218059F
:1036000025CDE11023CDE5CF882309F41FCDF1109E
:103610001DCD8091190591E0892780931905EECF82
:1036200085E0F601DE01119601900D928A95E1F791
:10363000F601228189819A81211191C90E94F705A1
:10364000082F95C90531FCE51F0778F402302CE5F9
:10365000120708F07FCA01153CE5130709F469C990
:1036600001301C4509F465C975CA0C3DACE51A0763
:1036700009F45FC960F406311C4509F06BCA8091FA
:1036800015058111AACC89E20E94980598CB0D3DC1
:10369000FCE51F0709F44DC90E3D1C4509F449C955
:1036A00059CA1F93CF93DF9380911F05807FC1F488
:1036B00080911C058823A1F080915105C0912005BF
:1036C00060911A0570911B0540911D0550911E05D2
:1036D000D62FD723DA01A095B09516E0C81304C001
:1036E000DF91CF911F91089590E04115510511F0A0
:1036F000DF3F31F401968770F1CF2A0F3B1F17C0CF
:10370000189FF001199FF00D1124EF5DFA4F2181F0
:103710002713F0CF20812613EDCF22812111EACF8C
:10372000238134812417350740F3241B350B283CB3
:10373000310500F720911F052F70206120931F0590
:1037400026E0289FF001299FF00D1124EA5DFA4F31
:1037500080818F70806180838AE195E00E9474147B
:10376000DF91CF911F910C944E06BF92CF92DF92C2
:10377000EF92FF920F931F93CF93DF93CDB7DEB7F6
:1037800061970FB6F894DEBF0FBECDBF8C0185E008
:10379000F801DE011D9601900D928A95E1F7D8019E
:1037A0002C9111963C9111971296EC901297809162
:1037B0001D0590911E05009709F463C140911A05FB
:1037C00050911B05642F65236F3F09F45AC113966E
:1037D000CD90DC90B0901C05BB2009F413C1C81635
:1037E000D906C0F1F601E81BF90BCF01FF24F394D1
:1037F000883C910508F0F12C80911F05982F907F4F
:10380000FF2009F4C1C091117DC0FE2C531327C0C5
:10381000421325C0E11023C08F70806180931F0583
:103820008AE195E00E94741480911F05D8011596D5
:103830008C938F2D61960FB6F894DEBF0FBECDBF6F
:10384000DF91CF911F910F91FF90EF90DF90CF907C
:10385000BF900895809590958C0D9D1DC7CFCD2864
:1038600029F0822F83238F3F09F035C180E0B82FE4
:10387000B170DB2E80FF3CC0809151054091200546
:1038800056E0841315C02D873E878D859E850E9446
:103890002809292F22952F702230F0F0243018F5B6
:1038A0009F70F1F0F8019581907FD1F4D12C1EC06A
:1038B00090E0589FF001599FF00D1124EF5DFA4FF1
:1038C0006181361306C06081261303C06281E6124F
:1038D0000FC001968770D5CF9F7011F0882331F308
:1038E000805E883018F3C8010E947414FD2CA1CFAB
:1038F000EE2009F49ECF80911F05816080931F0503
:10390000F12C97CF531313C0421311C0E1100FC015
:10391000D80115968C93C8010E94741486E0F801B2
:10392000AAE1B5E001900D928A95E1F782CF2D874B
:103930003E878D859E850E943209882309F1EE20FD
:10394000F9F080911F05803270F020911A053091B6
:103950001B0538872F831986DB86CA868C87CE01A4
:1039600007960E94741486E0F801AAE1B5E0019080
:103970000D928A95E1F70E94511BFF24F39459CFD1
:10398000C8010E947414F9CF91110CC08AE195E02E
:103990000E94741486E0EAE1F5E0DF011D928A9549
:1039A000E9F747CF531312C0421310C0E1100EC005
:1039B000F8018583C8010E947414EAE1F5E086E00D
:1039C000DF011D928A95E9F7FB2C33CF2D873E87C7
:1039D0008D859E850E943209882391F2EE2081F226
:1039E00080911F05803208F4BECF20911A053091D6
:1039F0001B053A8329831B82DD82CC828E83CE0114
:103A00000196AFCFC816D90640F0C81AD90AB8EC4B
:103A1000CB16D10448F0F12CBDCF809590958C0D3C
:103A20009D1D883C9105B8F7FE2CEE2009F4A8CF27
:103A3000531316C0421314C080911F0580FD6ECF32
:103A4000982F907F09F46ACFF8018583903F09F49D
:103A500062CF982F907F905F8F70892B85835BCF8B
:103A60002D873E878D859E850E94320981117BCFEF
:103A700080911F05816080931F05C8010E94741406
:103A8000D8CEEE2009F47CCF2D873E878D859E858C
:103A90000E943209F82E882309F472CF86E0F801DB
:103AA000AAE1B5E001900D928A95E1F780911A059F
:103AB00090911B050E94280992959F70963041F4C1
:103AC0008091190591E08927809319059093180535
:103AD0000E94511BAECE81E08E25C9CE0F931F935D
:103AE000CF93DF93CDB7DEB767970FB6F894DEBFFD
:103AF0000FBECDBF6D8B7E8B8F8B8E899F89892B5F
:103B0000E1F0842F85238F3F09F0C3C05FEF4FEFB3
:103B100014C030911905332309F46AC0E42FF0E092
:103B200036E0539FE00DF11D1124EE0FFF1FE25D03
:103B3000FE4F40815181822B8C931A8A198A4B8BBC
:103B40005C8B85E0FE017396DE011D9601900D925F
:103B50008A95E1F70E94660C00918E0510918F0501
:103B60008017910708F447C00E94660C801B910BD8
:103B70008838934120F08091900582FF86C00E9492
:103B8000880C81110E94790586E0FE013D96DE01D8
:103B9000179601900D928A95E1F7CE0107960E9443
:103BA000B51B811113C086E0FE013796DE01119628
:103BB00001900D928A95E1F78A859B85892B31F0DA
:103BC00088859F8189238F3F09F045C016E0809149
:103BD00051059091200589132CC067960FB6F89473
:103BE000DEBF0FBECDBFDF91CF911F910F91089522
:103BF00080958223A1CF0E94660C00951095080F36
:103C0000191F0838134108F0B6CFB9CF96E0929F3C
:103C1000D001939FB00D1124AF5DBA4FFE013196D4
:103C200001900D929A95E1F7809320050E944E062F
:103C3000CDCF819FC00111248F5D9A4F0E94B51B8B
:103C4000882359F28091510590E001968770992759
:103C500080935105BCCF2091200530E0C901019629
:103C600087709927409151054817190679F60E94E7
:103C7000090E109220051092510586E0EAE1F5E068
:103C8000DF011D928A95E9F7A1CF82E00E94B10D74
:103C900076CF81E090E0042E01C0880F0A94EAF705
:103CA000A52FB0E0AD5FBA4F2C913D89311131CFD6
:103CB000322F382330CFAF92BF92CF92DF92EF9264
:103CC000FF920F931F93CF93FB012091FC042111CE
:103CD0007CC0C281C1113CC08A3F2CE5920709F427
:103CE00042C028F4893F9C4531F1C1E031C08C3F8E
:103CF0003CE5930709F443C08D3F9C45B1F7A09084
:103D00000601B0900701C0908905D0908A05E09027
:103D10008B05F0908C050E94090E0E94FA0D04EFAD
:103D200014E0A016B10609F43FC0C8010E94741443
:103D300006501109F6CF0E94090E0E94FA0D8AEF73
:103D400091E09093FB048093FA0481E08093FC045B
:103D50008C2FCF911F910F91FF90EF90DF90CF901C
:103D6000BF90AF9008950E94090E0E94FA0D84EF53
:103D700094E09093FB048093FA0482E0E7CFA09054
:103D80000801B0900901C0908905D0908A05E090A3
:103D90008B05F0908C050E94090E0E94FA0D0AEF27
:103DA00011E0A016B10659F40E94090EC0928905CF
:103DB000D0928A05E0928B05F0928C05C9CFC8019C
:103DC0000E9474140A5F1F4FECCF8B3F3CE59307B2
:103DD00031F0C0F18E3F9C45A8F5C0E0B9CFC2815B
:103DE000CC2309F4B5CF213029F02230B9F010925C
:103DF000FC04F3CF8091FA049091FB0421E08A3F08
:103E0000920729F0FC0136972281211105C0909379
:103E1000090180930801EBCFCF01F0CF8091FA0424
:103E20009091FB0434E0843F930729F0FC0136961F
:103E30002281211105C09093070180930601D7CFFD
:103E4000CF01F0CF213021F1223009F04ECF209167
:103E5000080130910901A091FA04B091FB0482811C
:103E6000811105C084E0A43FB80709F43ECFCD011D
:103E700006962817390709F438CF86E001900D928D
:103E80008A95E1F78091FA049091FB04069720C08F
:103E90002091060130910701A091FA04B091FB0432
:103EA0008281811105C081E0AA3FB80709F41DCFC6
:103EB000CD0106972817390709F417CF86E001903E
:103EC0000D928A95E1F78091FA049091FB04069691
:103ED0009093FB048093FA0408CFCF93DF9300D034
:103EE00000D000D0CDB7DEB7FC0180818430B8F4BB
:103EF0001B828130E9F0823039F40E94560981E05A
:103F00008B838BEF9CE506C08330D9F70E94620952
:103F100089EF9CE5BE016F5F7F4F0E945B1E269676
:103F20000FB6F894DEBF0FBECDBFDF91CF910895DD
:103F30008CEF9CE5EFCF8F929F92AF92BF92CF9282
:103F4000DF92EF92FF920F931F93CF93DF938091B5
:103F5000210190912201892B91F08091F8018F5FCE
:103F60008093F80181110BC00E947D0B90E090932B
:103F7000220180932101892B11F40E946E0A06EA26
:103F800015E07801C0E0D0E037E0C32ECC0E8C2FD6
:103F90000E94290B8C2D0E94290B8C2F0E94F40B60
:103FA000D7019D917D01D12C891729F0FD01319711
:103FB0008083DD24D3948C2D0E94F40BF70196812D
:103FC000891709F463C0868381E08D29D82B0E946C
:103FD0006B09CF5FC730C1F60E94660C6AEF70E0D4
:103FE0000E94A623882E9090F701992009F496C08C
:103FF0001092F701E091A005F091A1057F012EE05C
:10400000E20EF11C40E0CBEF2AEFC22ED12C5191F1
:104010005B3F81F0652F70E0282D392F8517C0F1A7
:10402000261B370B25303105CCF19F01215031097A
:10403000D901CC93EE15FF0551F74093F701D1114B
:1040400002C041116DC01092F601A091A005B0917F
:10405000A1052091F701E9EBF5E090E04191E8013D
:1040600039918E01431741F04C914B3FC9F48C9329
:10407000EF012197388321E01196D5E0E73CFD0759
:1040800069F72093F7019093F6014EC080E09DCF31
:10409000D601A61BB70B2A0F3B1FC4CF492DCACF91
:1040A00091E0EACF029FF001039FF00D1124E65F3B
:1040B000FE4FE288F388E114F10419F488ECE82E4D
:1040C000F12C029FE001039FD00D1124C65FDE4F4B
:1040D0008E818823B9F08D859E850E944F05E81654
:1040E000F90680F4109F700111248989811105C09F
:1040F000C701865F9E4F0E94A513C701805F9E4F38
:104100000E94C6131F5F212F30E080912001082EEE
:10411000000C990B821793072CF60CC0D11193CF8A
:104120009091F60191118FCF8091200110E006E16E
:104130008F3F49F781E0DF91CF911F910F91FF9061
:10414000EF90DF90CF90BF90AF909F908F900895A9
:10415000CDB7DEB72A970FB6F894DEBF0FBECDBF3E
:1041600084B7877F84BF0FB6F894A89580916000CC
:10417000886180936000109260000FBE80E8809399
:1041800061001092610085B7806885BF85B780683F
:1041900085BF0E9489020E9454038091E2008460DE
:1041A0008093E2007894809106068823A1F0109114
:1041B000E9001F709091EC00892F817090FD80E8DC
:1041C000182B1092E9008091E80083FD0E941E0EDA
:1041D0001F701093E90082E084BD93E095BD9AEFD3
:1041E00097BD80936E000E947D0B90E0909322011A
:1041F000809321010E946B090E947A09A6EAB5E02A
:10420000E9EBF5E011921D9225E0E73CF207D1F7CA
:104210008EE090E00E9416248093A0059093A10563
:10422000FC010E962BEF21938E179F07E1F790E08C
:1042300080E00E94DC238D3E9E4F11F00E94CB0A4D
:104240008CE090E00E94D42390E0B0E0A0E0809366
:10425000A2059093A305A093A405B093A50589EAB0
:104260008093800089E08093810024982C983F9867
:104270008AB18F7C8AB96E98479A8BB180638BB96B
:10428000769A0E946E0A90E080E00E94DC238D3EC8
:104290009E4F11F00E94CB0A82E090E00E94D4234E
:1042A0008093D10584E090E00E94D42390E0909325
:1042B000B5058093B40583E090E00E94D423682F75
:1042C00070E090E080E00E94FF0D83E291E0909327
:1042D000B7058093B605BB24B394AA24AA94EE2410
:1042E000E394F12C90E1592E22E1622E38E1C32EA5
:1042F000D12C40E4742E80910606853009F469C003
:104300000E949B1FA2EDB5E0E9EBF5E010E000E0B4
:10431000702F61912D91261709F4A8C090E080E0DC
:10432000262730E0982EA901082E02C05595479502
:104330000A94E2F740FF95C089837A83C70102C0DF
:10434000880F991F9A94E2F74C01862F90E08821FC
:10435000992121E0892B09F420E02B830E94660C2F
:104360008160782F9D838C8349815A816B818D81F7
:104370000E946E1DF801EE52FA4F808188268082DD
:104380008091CE059091CF050E944F059C019091A0
:10439000CD05992319F02431310578F02091C90514
:1043A0009090CA051091CB050091CC05211174C0E5
:1043B000892D812B802B09F0E5C00E948406909105
:1043C000D005891709F497CF0E9484068093D00501
:1043D00092CF80910606843009F11092B8050FB68D
:1043E000F894A895C09260000FBE7092600083B7E9
:1043F000817F846083BF83B7816083BF7894889511
:1044000083B78E7F83BF0FB6F894A8958091600024
:10441000886180936000109260000FBE8091050655
:10442000882309F468CF0E947D0B90E090932201CD
:10443000809321010E946B090E947A09E9EBF5E063
:10444000119245E0E73CF407D9F70E949B1FE9EB86
:10445000F5E08191811182C085E0E73CF807C9F75A
:104460004ACF01968630910509F05CCF0F5F1F4F50
:104470000E30110509F04CCFAE82AF8218860E9433
:10448000660C8160782F9A8789874E815F81688565
:104490008A850E946E1D74CF9F3F19F09F5F909395
:1044A000CD05121624F40E94C3048093C90580919F
:1044B000C90587FF05C00E94C30481958093C90583
:1044C000191424F40E94C3048093CA058091CA057C
:1044D00087FF05C00E94C30481958093CA0530916F
:1044E000C9053323A1F02091CA05222381F045EBB1
:1044F0003403C0011124992359F19093C90545EB68
:10450000240390011124332331F13093CA0511168D
:1045100024F40E94A1048093CB058091CB0587FFF2
:1045200005C00E94A10481958093CB05101624F448
:104530000E94A1048093CC058091CC0587FF05C023
:104540000E94A10481958093CC050E94720C35CF06
:10455000B092C905D4CFB092CA05D9CF59BC69BCB5
:1045600009B400FEFDCF8091D8008F7D8093D800E4
:104570008091E00082608093E0008091E00081FD06
:10458000FCCFB9CE9F3F09F089CF9ACF1F921FB6BB
:104590001F9211248F939F93AF93BF938091B8057F
:1045A000811113C080919B0590919C05A0919D0560
:1045B000B0919E054196A11DB11D80939B059093DE
:1045C0009C05A0939D05B0939E05BF91AF919F91CF
:1045D0008F911F901FBE1F9018951092B9008CE00C
:1045E0008093B8000895EF92FF920F931F93CF939B
:1045F000DF93182FEB011092BC0084EA8093BC007B
:104600000E94660C7C018091BC0087FF27C08091CE
:10461000B900887F883029F08091B900887F803187
:10462000D9F51093BB0084E88093BC000E94660C0F
:104630008C018091BC0087FF24C02091B900287FA5
:1046400090E080E02831B1F081E090E0203411F476
:1046500090E080E09195819591090CC0CF3FDC07F7
:1046600091F20E94660C8E199F098C179D0758F2D3
:104670008EEF9FEFDF91CF911F910F91FF90EF9001
:104680000895CF3FDC07A9F20E94660C801B910BB6
:104690008C179D0770F2ECCF8FEF9FEFEBCF0F934E
:1046A0001F93CF93DF93EB018093BB0084E880934B
:1046B000BC000E94660C8C018091BC0087FF11C079
:1046C0002091B900287F81E090E0283211F490E039
:1046D00080E0919581959109DF91CF911F910F9184
:1046E0000895CF3FDC0741F30E94660C801B910BBD
:1046F0008C179D0708F38EEF9FEFEECF0F931F935C
:10470000CF93DF93EC0184E88093BC000E94660C99
:104710008C018091BC0087FF08C08091BB0090E0B5
:10472000DF91CF911F910F910895CF3FDC0789F35F
:104730000E94660C801B910B8C179D0750F38EEF27
:104740009FEFEECF84E98093BC000895AA1BBB1BAA
:1047500051E107C0AA1FBB1FA617B70710F0A61B81
:10476000B70B881F991F5A95A9F780959095BC01A2
:10477000CD01089597FB072E16F4009407D077FD1E
:1047800009D00E94A62307FC05D03EF490958195A0
:104790009F4F0895709561957F4F0895EE0FFF1F0D
:1047A0000590F491E02D0994F999FECF92BD81BD59
:1047B000F89A992780B50895A8E1B0E042E050E06A
:1047C0000C940824262FF999FECF92BD81BDF89A4A
:1047D000019700B4021639F01FBA20BD0FB6F89445
:1047E000FA9AF99A0FBE08950396272F0E94E323A1
:1047F0000E94E223252F0E94E323242F0C94E3231D
:104800000196272F0E94E3230C94E223DC01CB01C5
:10481000FC01F999FECF06C0F2BDE1BDF89A3196D0
:1048200000B40D9241505040B8F708950F931F9374
:10483000CF93DF938230910510F482E090E0E09115
:104840001206F091130630E020E0B0E0A0E03097CF
:1048500099F42115310509F447C0281B390B243080
:104860003105C0F58A819B816115710571F1FB01EC
:1048700093838283FE0111C04081518102811381A3
:1048800048175907F8F04817590799F4109761F03D
:1048900012960C93129713961C933296CF01DF91C8
:1048A000CF911F910F910895009312061093130654
:1048B000F4CF2115310519F04217530718F49A0166
:1048C000BD01EF01DF01F801C2CF90931306809381
:1048D0001206D0CFFE01E20FF31F81939193225075
:1048E000310939832883DACF2091100630911106DF
:1048F000232B41F4209102013091030130931106E2
:1049000020931006209100013091010121153105FD
:1049100041F42DB73EB74091040150910501241B8D
:10492000350B40911006509111064217530708F0BD
:10493000B5CF241B350B2817390708F4AFCFBC01BE
:104940006E5F7F4F2617370708F4A8CF640F751FD7
:104950007093110660931006FA01819391939ECF94
:10496000CF93DF930097E9F0FC0132971382128214
:10497000C0911206D0911306DE0130E020E02097AE
:10498000A1F420813181820F931F20911006309174
:1049900011062817390709F067C0F0931106E09354
:1049A0001006DF91CF910895DA01AE17BF0708F026
:1049B00040C012964D915C9113979D014115510590
:1049C00099F7D9011396FC93EE9312974D915D914F
:1049D000A40FB51FEA17FB0779F480819181029635
:1049E000840F951FD90111969C938E938281938198
:1049F00013969C938E931297B0E0A0E08A819B81DE
:104A00000097B9F5FE0181919191E80FF91F80910E
:104A10001006909111068E179F0719F6109761F5F1
:104A20001092130610921206D0931106C09310062E
:104A3000B8CFB383A28340815181840F951FA817FB
:104A4000B90771F44E5F5F4F8D919C911197480F9C
:104A5000591F5183408312968D919C919383828339
:104A60002115310509F0ADCFF0931306E09312063E
:104A700098CFDE01EC01C2CF13961C921E921297C2
:104A8000D3CFF894FFCF410941094A094A094C099B
:104A90004A094A094A094109410951094A094A0989
:104AA00051096E0D810D860D7F0D840D8B0D890DC5
:104AB000010F290FCB10290FCB105C0F7D0FCB10EE
:104AC00086109310F417F41762186218D218EC18B5
:104AD000B31A26182E19041A131A131A8217A417B8
:104AE000A817AC17B017B417B817BC17C017C4175E
:104AF000C817CC17D017D417D817DC17E017E4174E
:104B0000000014062000F404FA0100006D1F0000EC
:104B10000000000000000000000000000000000095
:104B2000FF20001F04280AFD09C7098C0901000D98
:104B3000010D020D030D040D050D000C010C020CFE
:104B4000030C040C050C000B010B020B030B040BF4
:104B5000050B000A010A020A030A040A050A0009F1
:104B600001090209030904090509000801080208EE
:104B700003080408050800070107020703070407E4
:104B800005070006010602060306040605060005E1
:104B900001050205030504050505000401040204DE
:104BA00003040404050400030103020303030403D4
:104BB00005030002010202020302040205020001D1
:104BC00001010201030104010501000001000200CE
:064BD000030004000500D3
:00000001FF
